{
  "contractName": "NFTAuction",
  "abi": [
    {
      "inputs": [],
      "stateMutability": "nonpayable",
      "type": "constructor"
    },
    {
      "anonymous": false,
      "inputs": [
        {
          "indexed": false,
          "internalType": "address",
          "name": "nftContractAddress",
          "type": "address"
        },
        {
          "indexed": false,
          "internalType": "uint256",
          "name": "tokenId",
          "type": "uint256"
        },
        {
          "indexed": false,
          "internalType": "uint64",
          "name": "auctionEndPeriod",
          "type": "uint64"
        }
      ],
      "name": "AuctionPeriodUpdated",
      "type": "event"
    },
    {
      "anonymous": false,
      "inputs": [
        {
          "indexed": false,
          "internalType": "address",
          "name": "nftContractAddress",
          "type": "address"
        },
        {
          "indexed": false,
          "internalType": "uint256",
          "name": "tokenId",
          "type": "uint256"
        },
        {
          "indexed": false,
          "internalType": "address",
          "name": "auctionSettler",
          "type": "address"
        }
      ],
      "name": "AuctionSettled",
      "type": "event"
    },
    {
      "anonymous": false,
      "inputs": [
        {
          "indexed": false,
          "internalType": "address",
          "name": "nftContractAddress",
          "type": "address"
        },
        {
          "indexed": false,
          "internalType": "uint256",
          "name": "tokenId",
          "type": "uint256"
        },
        {
          "indexed": false,
          "internalType": "address",
          "name": "nftOwner",
          "type": "address"
        }
      ],
      "name": "AuctionWithdrawn",
      "type": "event"
    },
    {
      "anonymous": false,
      "inputs": [
        {
          "indexed": false,
          "internalType": "address",
          "name": "nftContractAddress",
          "type": "address"
        },
        {
          "indexed": false,
          "internalType": "uint256",
          "name": "tokenId",
          "type": "uint256"
        },
        {
          "indexed": false,
          "internalType": "address",
          "name": "bidder",
          "type": "address"
        },
        {
          "indexed": false,
          "internalType": "address",
          "name": "erc20Token",
          "type": "address"
        },
        {
          "indexed": false,
          "internalType": "uint256",
          "name": "tokenAmount",
          "type": "uint256"
        }
      ],
      "name": "BidMade",
      "type": "event"
    },
    {
      "anonymous": false,
      "inputs": [
        {
          "indexed": false,
          "internalType": "address",
          "name": "nftContractAddress",
          "type": "address"
        },
        {
          "indexed": false,
          "internalType": "uint256",
          "name": "tokenId",
          "type": "uint256"
        },
        {
          "indexed": false,
          "internalType": "address",
          "name": "highestBidder",
          "type": "address"
        }
      ],
      "name": "BidWithdrawn",
      "type": "event"
    },
    {
      "anonymous": false,
      "inputs": [
        {
          "indexed": false,
          "internalType": "address",
          "name": "nftContractAddress",
          "type": "address"
        },
        {
          "indexed": false,
          "internalType": "uint256",
          "name": "tokenId",
          "type": "uint256"
        },
        {
          "indexed": false,
          "internalType": "uint128",
          "name": "newBuyNowPrice",
          "type": "uint128"
        }
      ],
      "name": "BuyNowPriceUpdated",
      "type": "event"
    },
    {
      "anonymous": false,
      "inputs": [
        {
          "indexed": false,
          "internalType": "address",
          "name": "nftContractAddress",
          "type": "address"
        },
        {
          "indexed": false,
          "internalType": "uint256",
          "name": "tokenId",
          "type": "uint256"
        }
      ],
      "name": "HighestBidTaken",
      "type": "event"
    },
    {
      "anonymous": false,
      "inputs": [
        {
          "indexed": false,
          "internalType": "address",
          "name": "nftContractAddress",
          "type": "address"
        },
        {
          "indexed": false,
          "internalType": "uint256",
          "name": "tokenId",
          "type": "uint256"
        },
        {
          "indexed": false,
          "internalType": "uint256",
          "name": "newMinPrice",
          "type": "uint256"
        }
      ],
      "name": "MinimumPriceUpdated",
      "type": "event"
    },
    {
      "anonymous": false,
      "inputs": [
        {
          "indexed": false,
          "internalType": "address",
          "name": "nftContractAddress",
          "type": "address"
        },
        {
          "indexed": false,
          "internalType": "uint256",
          "name": "tokenId",
          "type": "uint256"
        },
        {
          "indexed": false,
          "internalType": "address",
          "name": "nftSeller",
          "type": "address"
        },
        {
          "indexed": false,
          "internalType": "uint128",
          "name": "nftHighestBid",
          "type": "uint128"
        },
        {
          "indexed": false,
          "internalType": "address",
          "name": "nftHighestBidder",
          "type": "address"
        },
        {
          "indexed": false,
          "internalType": "address",
          "name": "nftRecipient",
          "type": "address"
        }
      ],
      "name": "NFTTransferredAndSellerPaid",
      "type": "event"
    },
    {
      "anonymous": false,
      "inputs": [
        {
          "indexed": false,
          "internalType": "address",
          "name": "nftContractAddress",
          "type": "address"
        },
        {
          "indexed": false,
          "internalType": "uint256",
          "name": "tokenId",
          "type": "uint256"
        },
        {
          "indexed": false,
          "internalType": "address",
          "name": "nftSeller",
          "type": "address"
        },
        {
          "indexed": false,
          "internalType": "address",
          "name": "erc20Token",
          "type": "address"
        },
        {
          "indexed": false,
          "internalType": "uint128",
          "name": "minPrice",
          "type": "uint128"
        },
        {
          "indexed": false,
          "internalType": "uint128",
          "name": "buyNowPrice",
          "type": "uint128"
        },
        {
          "indexed": false,
          "internalType": "uint32",
          "name": "auctionBidPeriod",
          "type": "uint32"
        },
        {
          "indexed": false,
          "internalType": "uint32",
          "name": "bidIncreasePercentage",
          "type": "uint32"
        },
        {
          "indexed": false,
          "internalType": "address[]",
          "name": "feeRecipients",
          "type": "address[]"
        },
        {
          "indexed": false,
          "internalType": "uint32[]",
          "name": "feePercentages",
          "type": "uint32[]"
        }
      ],
      "name": "NftAuctionCreated",
      "type": "event"
    },
    {
      "anonymous": false,
      "inputs": [
        {
          "indexed": false,
          "internalType": "address",
          "name": "nftContractAddress",
          "type": "address"
        },
        {
          "indexed": false,
          "internalType": "uint256",
          "name": "tokenId",
          "type": "uint256"
        },
        {
          "indexed": false,
          "internalType": "address",
          "name": "nftSeller",
          "type": "address"
        },
        {
          "indexed": false,
          "internalType": "address",
          "name": "erc20Token",
          "type": "address"
        },
        {
          "indexed": false,
          "internalType": "uint128",
          "name": "buyNowPrice",
          "type": "uint128"
        },
        {
          "indexed": false,
          "internalType": "address",
          "name": "whitelistedBuyer",
          "type": "address"
        },
        {
          "indexed": false,
          "internalType": "address[]",
          "name": "feeRecipients",
          "type": "address[]"
        },
        {
          "indexed": false,
          "internalType": "uint32[]",
          "name": "feePercentages",
          "type": "uint32[]"
        }
      ],
      "name": "SaleCreated",
      "type": "event"
    },
    {
      "anonymous": false,
      "inputs": [
        {
          "indexed": false,
          "internalType": "address",
          "name": "nftContractAddress",
          "type": "address"
        },
        {
          "indexed": false,
          "internalType": "uint256",
          "name": "tokenId",
          "type": "uint256"
        },
        {
          "indexed": false,
          "internalType": "address",
          "name": "newWhitelistedBuyer",
          "type": "address"
        }
      ],
      "name": "WhitelistedBuyerUpdated",
      "type": "event"
    },
    {
      "inputs": [],
      "name": "defaultAuctionBidPeriod",
      "outputs": [
        {
          "internalType": "uint32",
          "name": "",
          "type": "uint32"
        }
      ],
      "stateMutability": "view",
      "type": "function"
    },
    {
      "inputs": [],
      "name": "defaultBidIncreasePercentage",
      "outputs": [
        {
          "internalType": "uint32",
          "name": "",
          "type": "uint32"
        }
      ],
      "stateMutability": "view",
      "type": "function"
    },
    {
      "inputs": [],
      "name": "maximumMinPricePercentage",
      "outputs": [
        {
          "internalType": "uint32",
          "name": "",
          "type": "uint32"
        }
      ],
      "stateMutability": "view",
      "type": "function"
    },
    {
      "inputs": [],
      "name": "minimumSettableIncreasePercentage",
      "outputs": [
        {
          "internalType": "uint32",
          "name": "",
          "type": "uint32"
        }
      ],
      "stateMutability": "view",
      "type": "function"
    },
    {
      "inputs": [
        {
          "internalType": "address",
          "name": "",
          "type": "address"
        },
        {
          "internalType": "uint256",
          "name": "",
          "type": "uint256"
        }
      ],
      "name": "nftContractAuctions",
      "outputs": [
        {
          "internalType": "uint32",
          "name": "bidIncreasePercentage",
          "type": "uint32"
        },
        {
          "internalType": "uint32",
          "name": "auctionBidPeriod",
          "type": "uint32"
        },
        {
          "internalType": "uint64",
          "name": "auctionEnd",
          "type": "uint64"
        },
        {
          "internalType": "uint128",
          "name": "minPrice",
          "type": "uint128"
        },
        {
          "internalType": "uint128",
          "name": "buyNowPrice",
          "type": "uint128"
        },
        {
          "internalType": "uint128",
          "name": "nftHighestBid",
          "type": "uint128"
        },
        {
          "internalType": "address",
          "name": "nftHighestBidder",
          "type": "address"
        },
        {
          "internalType": "address",
          "name": "nftSeller",
          "type": "address"
        },
        {
          "internalType": "address",
          "name": "whitelistedBuyer",
          "type": "address"
        },
        {
          "internalType": "address",
          "name": "nftRecipient",
          "type": "address"
        },
        {
          "internalType": "address",
          "name": "ERC20Token",
          "type": "address"
        }
      ],
      "stateMutability": "view",
      "type": "function"
    },
    {
      "inputs": [
        {
          "internalType": "address",
          "name": "_nftContractAddress",
          "type": "address"
        },
        {
          "internalType": "uint256",
          "name": "_tokenId",
          "type": "uint256"
        },
        {
          "internalType": "address",
          "name": "_erc20Token",
          "type": "address"
        },
        {
          "internalType": "uint128",
          "name": "_minPrice",
          "type": "uint128"
        },
        {
          "internalType": "uint128",
          "name": "_buyNowPrice",
          "type": "uint128"
        },
        {
          "internalType": "address[]",
          "name": "_feeRecipients",
          "type": "address[]"
        },
        {
          "internalType": "uint32[]",
          "name": "_feePercentages",
          "type": "uint32[]"
        }
      ],
      "name": "createDefaultNftAuction",
      "outputs": [],
      "stateMutability": "nonpayable",
      "type": "function"
    },
    {
      "inputs": [
        {
          "internalType": "address",
          "name": "_nftContractAddress",
          "type": "address"
        },
        {
          "internalType": "uint256",
          "name": "_tokenId",
          "type": "uint256"
        },
        {
          "internalType": "address",
          "name": "_erc20Token",
          "type": "address"
        },
        {
          "internalType": "uint128",
          "name": "_minPrice",
          "type": "uint128"
        },
        {
          "internalType": "uint128",
          "name": "_buyNowPrice",
          "type": "uint128"
        },
        {
          "internalType": "uint32",
          "name": "_auctionBidPeriod",
          "type": "uint32"
        },
        {
          "internalType": "uint32",
          "name": "_bidIncreasePercentage",
          "type": "uint32"
        },
        {
          "internalType": "address[]",
          "name": "_feeRecipients",
          "type": "address[]"
        },
        {
          "internalType": "uint32[]",
          "name": "_feePercentages",
          "type": "uint32[]"
        }
      ],
      "name": "createNewNftAuction",
      "outputs": [],
      "stateMutability": "nonpayable",
      "type": "function"
    },
    {
      "inputs": [
        {
          "internalType": "address",
          "name": "_nftContractAddress",
          "type": "address"
        },
        {
          "internalType": "uint256",
          "name": "_tokenId",
          "type": "uint256"
        },
        {
          "internalType": "address",
          "name": "_erc20Token",
          "type": "address"
        },
        {
          "internalType": "uint128",
          "name": "_buyNowPrice",
          "type": "uint128"
        },
        {
          "internalType": "address",
          "name": "_whitelistedBuyer",
          "type": "address"
        },
        {
          "internalType": "address[]",
          "name": "_feeRecipients",
          "type": "address[]"
        },
        {
          "internalType": "uint32[]",
          "name": "_feePercentages",
          "type": "uint32[]"
        }
      ],
      "name": "createSale",
      "outputs": [],
      "stateMutability": "nonpayable",
      "type": "function"
    },
    {
      "inputs": [
        {
          "internalType": "address",
          "name": "_nftContractAddress",
          "type": "address"
        },
        {
          "internalType": "uint256",
          "name": "_tokenId",
          "type": "uint256"
        },
        {
          "internalType": "address",
          "name": "_erc20Token",
          "type": "address"
        },
        {
          "internalType": "uint128",
          "name": "_tokenAmount",
          "type": "uint128"
        }
      ],
      "name": "makeBid",
      "outputs": [],
      "stateMutability": "nonpayable",
      "type": "function"
    },
    {
      "inputs": [
        {
          "internalType": "address",
          "name": "_nftContractAddress",
          "type": "address"
        },
        {
          "internalType": "uint256",
          "name": "_tokenId",
          "type": "uint256"
        },
        {
          "internalType": "address",
          "name": "_erc20Token",
          "type": "address"
        },
        {
          "internalType": "uint128",
          "name": "_tokenAmount",
          "type": "uint128"
        },
        {
          "internalType": "address",
          "name": "_nftRecipient",
          "type": "address"
        }
      ],
      "name": "makeCustomBid",
      "outputs": [],
      "stateMutability": "nonpayable",
      "type": "function"
    },
    {
      "inputs": [
        {
          "internalType": "address",
          "name": "_nftContractAddress",
          "type": "address"
        },
        {
          "internalType": "uint256",
          "name": "_tokenId",
          "type": "uint256"
        }
      ],
      "name": "settleAuction",
      "outputs": [],
      "stateMutability": "nonpayable",
      "type": "function"
    },
    {
      "inputs": [
        {
          "internalType": "address",
          "name": "_nftContractAddress",
          "type": "address"
        },
        {
          "internalType": "uint256",
          "name": "_tokenId",
          "type": "uint256"
        }
      ],
      "name": "withdrawAuction",
      "outputs": [],
      "stateMutability": "nonpayable",
      "type": "function"
    },
    {
      "inputs": [
        {
          "internalType": "address",
          "name": "_nftContractAddress",
          "type": "address"
        },
        {
          "internalType": "uint256",
          "name": "_tokenId",
          "type": "uint256"
        }
      ],
      "name": "withdrawBid",
      "outputs": [],
      "stateMutability": "nonpayable",
      "type": "function"
    },
    {
      "inputs": [
        {
          "internalType": "address",
          "name": "_nftContractAddress",
          "type": "address"
        },
        {
          "internalType": "uint256",
          "name": "_tokenId",
          "type": "uint256"
        },
        {
          "internalType": "address",
          "name": "_newWhitelistedBuyer",
          "type": "address"
        }
      ],
      "name": "updateWhitelistedBuyer",
      "outputs": [],
      "stateMutability": "nonpayable",
      "type": "function"
    },
    {
      "inputs": [
        {
          "internalType": "address",
          "name": "_nftContractAddress",
          "type": "address"
        },
        {
          "internalType": "uint256",
          "name": "_tokenId",
          "type": "uint256"
        },
        {
          "internalType": "uint128",
          "name": "_newMinPrice",
          "type": "uint128"
        }
      ],
      "name": "updateMinimumPrice",
      "outputs": [],
      "stateMutability": "nonpayable",
      "type": "function"
    },
    {
      "inputs": [
        {
          "internalType": "address",
          "name": "_nftContractAddress",
          "type": "address"
        },
        {
          "internalType": "uint256",
          "name": "_tokenId",
          "type": "uint256"
        },
        {
          "internalType": "uint128",
          "name": "_newBuyNowPrice",
          "type": "uint128"
        }
      ],
      "name": "updateBuyNowPrice",
      "outputs": [],
      "stateMutability": "nonpayable",
      "type": "function"
    },
    {
      "inputs": [
        {
          "internalType": "address",
          "name": "_nftContractAddress",
          "type": "address"
        },
        {
          "internalType": "uint256",
          "name": "_tokenId",
          "type": "uint256"
        }
      ],
      "name": "takeHighestBid",
      "outputs": [],
      "stateMutability": "nonpayable",
      "type": "function"
    },
    {
      "inputs": [
        {
          "internalType": "address",
          "name": "_nftContractAddress",
          "type": "address"
        },
        {
          "internalType": "uint256",
          "name": "_tokenId",
          "type": "uint256"
        }
      ],
      "name": "ownerOfNFT",
      "outputs": [
        {
          "internalType": "address",
          "name": "",
          "type": "address"
        }
      ],
      "stateMutability": "view",
      "type": "function"
    },
    {
      "inputs": [],
      "name": "withdrawAllFailedCredits",
      "outputs": [],
      "stateMutability": "nonpayable",
      "type": "function"
    }
  ],
  "bytecode": "0x608060405234801561001057600080fd5b50600280546001600160801b0319166e01518000001f4000000064000000641790556136c2806100416000396000f3fe608060405234801561001057600080fd5b50600436106101215760003560e01c8063848e5c77116100ad578063cd4eda1c11610071578063cd4eda1c14610376578063ebea60251461038d578063f45671f1146103a0578063f583bac7146103b3578063f7f829a4146103c657600080fd5b8063848e5c77146103255780639041e273146103385780639c0b99661461034b578063b6ad69141461035b578063c24d5a5c1461036357600080fd5b80632f9c9576116100f45780632f9c9576146102c15780633d87d5fb146102d45780634cb8ef5b146102ec5780635138b08c146102ff578063565c51721461031257600080fd5b8063041fa0b814610126578063076b73ac14610255578063186779d51461026a57806320950fc614610296575b600080fd5b6101cc610134366004612da4565b6000602081815292815260408082209093529081522080546001820154600283015460038401546004850154600586015460069096015463ffffffff8087169764010000000088049091169667ffffffffffffffff600160401b820416966001600160801b03600160801b92839004811697828216979390920416946001600160a01b0391821694928216939082169290821691168b565b6040805163ffffffff9c8d1681529b909a1660208c015267ffffffffffffffff909816988a01989098526001600160801b0395861660608a015293851660808901529390911660a08701526001600160a01b0390811660c087015291821660e0860152811661010085015291821661012084015216610140820152610160015b60405180910390f35b610268610263366004612dd0565b6103d9565b005b60025461028190600160601b900463ffffffff1681565b60405163ffffffff909116815260200161024c565b6102a96102a4366004612da4565b61054d565b6040516001600160a01b03909116815260200161024c565b6102686102cf366004612e2e565b6105c0565b60025461028190640100000000900463ffffffff1681565b6102686102fa366004612da4565b61082e565b61026861030d366004612da4565b61098c565b610268610320366004612e6c565b610a30565b610268610333366004612da4565b610bae565b610268610346366004613027565b610c96565b6002546102819063ffffffff1681565b610268610de8565b6102686103713660046130db565b610ee0565b60025461028190600160401b900463ffffffff1681565b61026861039b366004612da4565b610fcb565b6102686103ae36600461312c565b6110c5565b6102686103c1366004613187565b6112ac565b6102686103d4366004612e2e565b611521565b6001600160a01b038381166000908152602081815260408083208684529091529020600301548491849116331461042b5760405162461bcd60e51b81526004016104229061325d565b60405180910390fd5b61043585856116bb565b61046e5760405162461bcd60e51b815260206004820152600a6024820152694e6f7420612073616c6560b01b6044820152606401610422565b6001600160a01b0385811660009081526020818152604080832088845290915290206004810180546001600160a01b0319168684161790556002810154600190910154911690600160801b90046001600160801b031680158015906104e55750846001600160a01b0316826001600160a01b031614155b15610509576104f4878761172a565b610509878784846001600160801b0316611780565b7f7502912f483c1fb3f89bf8664bea10db517c2093040d379e78e169e06752364687878760405161053c93929190613286565b60405180910390a150505050505050565b6001600160a01b03808316600090815260208181526040808320858452909152812060030154909116806105b75760405162461bcd60e51b8152602060048201526011602482015270139195081b9bdd0819195c1bdcda5d1959607a1b6044820152606401610422565b90505b92915050565b6001600160a01b03838116600090815260208181526040808320868452909152902060030154849184911633146106095760405162461bcd60e51b81526004016104229061325d565b848461061582826118cd565b156106625760405162461bcd60e51b815260206004820181905260248201527f5468652061756374696f6e2068617320612076616c696420626964206d6164656044820152606401610422565b868661066e82826116bb565b156106bb5760405162461bcd60e51b815260206004820152601960248201527f4e6f74206170706c696361626c6520666f7220612073616c65000000000000006044820152606401610422565b866001600160801b0316600081116106e55760405162461bcd60e51b8152600401610422906132a9565b6001600160a01b038a166000908152602081815260408083208c84529091529020600101546001600160801b03168881158061074757506002546001600160801b038281169161074491851690600160401b900463ffffffff1661194d565b10155b6107635760405162461bcd60e51b8152600401610422906132d4565b6001600160a01b038c166000908152602081815260408083208e84529091529081902080546001600160801b03808e16600160801b029116179055517fdcf27af4c564afa0c536dd1fa48e5fef0d9833378a1bddacc95922b902ebfc32906107f5908e908e908e906001600160a01b0393909316835260208301919091526001600160801b0316604082015260600190565b60405180910390a16108078c8c6118cd565b15610820576108168c8c611966565b6108208c8c611bde565b505050505050505050505050565b818161083a82826118cd565b156108875760405162461bcd60e51b815260206004820181905260248201527f5468652061756374696f6e2068617320612076616c696420626964206d6164656044820152606401610422565b6001600160a01b03808516600090815260208181526040808320878452909152902060020154163381146108f55760405162461bcd60e51b815260206004820152601560248201527443616e6e6f742077697468647261772066756e647360581b6044820152606401610422565b6001600160a01b038516600090815260208181526040808320878452909152902060010154600160801b90046001600160801b0316610934868661172a565b610949868684846001600160801b0316611780565b7f10d9bddf66f639dd3c5a6ad2db5ae3102c2b468dfb90a4b0da219435f24a970d86863360405161097c93929190613286565b60405180910390a1505050505050565b81816109988282611c8b565b156109e55760405162461bcd60e51b815260206004820152601760248201527f41756374696f6e206973206e6f7420796574206f7665720000000000000000006044820152606401610422565b6109ef8484611cd9565b7fe6b94748c5d6e0d188a0fcb9b7f2973b01fc0095627f1ec5accdcd9d2e65ca36848433604051610a2293929190613286565b60405180910390a150505050565b8484610a3c8282611c8b565b610a7c5760405162461bcd60e51b8152602060048201526011602482015270105d58dd1a5bdb881a185cc8195b991959607a1b6044820152606401610422565b826001600160a01b038116610ad35760405162461bcd60e51b815260206004820152601860248201527f43616e6e6f7420737065636966792030206164647265737300000000000000006044820152606401610422565b8787610adf8282611e4a565b1580610b1057506001600160a01b038281166000908152602081815260408083208584529091529020600401541633145b610b5c5760405162461bcd60e51b815260206004820152601a60248201527f4f6e6c79207468652077686974656c69737465642062757965720000000000006044820152606401610422565b6001600160a01b038a81166000908152602081815260408083208d8452909152902060050180546001600160a01b031916918816919091179055610ba28a8a8a8a611e75565b50505050505050505050565b6001600160a01b0382811660009081526020818152604080832085845290915290206003015483918391163314610bf75760405162461bcd60e51b81526004016104229061325d565b610c018484612030565b610c435760405162461bcd60e51b815260206004820152601360248201527218d85b9b9bdd081c185e5bdd5d080c08189a59606a1b6044820152606401610422565b610c4d8484611966565b610c578484611cd9565b604080516001600160a01b0386168152602081018590527f711f4eae05533b90c24ff0ae762d6e9e1ef1b2c85d4c484a2913c5201bcbb7c99101610a22565b6001600160a01b038088166000908152602081815260408083208a84529091529020600301548891889116331415610ce05760405162461bcd60e51b81526004016104229061330b565b6001600160a01b038281166000908152602081815260408083208584529091529020600301541615610daf576040516331a9108f60e11b8152600481018290526001600160a01b03831690636352211e90602401602060405180830381865afa158015610d51573d6000803e3d6000fd5b505050506040513d601f19601f82011682018060405250810190610d759190613340565b6001600160a01b0316336001600160a01b031614610da55760405162461bcd60e51b81526004016104229061335d565b610daf828261206b565b856001600160801b031660008111610dd95760405162461bcd60e51b8152600401610422906132a9565b610ba28a8a8a8a8a8a8a6120d1565b3360009081526001602052604090205480610e3e5760405162461bcd60e51b81526020600482015260166024820152756e6f206372656469747320746f20776974686472617760501b6044820152606401610422565b3360008181526001602052604080822082905551909190614e2090849084818181858888f193505050503d8060008114610e94576040519150601f19603f3d011682016040523d82523d6000602084013e610e99565b606091505b5050905080610edc5760405162461bcd60e51b815260206004820152600f60248201526e1dda5d1a191c985dc819985a5b1959608a1b6044820152606401610422565b5050565b8383610eec8282611c8b565b610f2c5760405162461bcd60e51b8152602060048201526011602482015270105d58dd1a5bdb881a185cc8195b991959607a1b6044820152606401610422565b8585610f388282611e4a565b1580610f6957506001600160a01b038281166000908152602081815260408083208584529091529020600401541633145b610fb55760405162461bcd60e51b815260206004820152601a60248201527f4f6e6c79207468652077686974656c69737465642062757965720000000000006044820152606401610422565b610fc188888888611e75565b5050505050505050565b6040516331a9108f60e11b81526004810182905233906001600160a01b03841690636352211e90602401602060405180830381865afa158015611012573d6000803e3d6000fd5b505050506040513d601f19601f820116820180604052508101906110369190613340565b6001600160a01b03161461107c5760405162461bcd60e51b815260206004820152600d60248201526c2737ba1027232a1037bbb732b960991b6044820152606401610422565b611086828261206b565b7fec19f84af4aad6523d37faa19e243c77717842cca9bf492dc5379830cac958d08282336040516110b993929190613286565b60405180910390a15050565b6001600160a01b038088166000908152602081815260408083208a8452909152902060030154889188911633141561110f5760405162461bcd60e51b81526004016104229061330b565b6001600160a01b0382811660009081526020818152604080832085845290915290206003015416156111de576040516331a9108f60e11b8152600481018290526001600160a01b03831690636352211e90602401602060405180830381865afa158015611180573d6000803e3d6000fd5b505050506040513d601f19601f820116820180604052508101906111a49190613340565b6001600160a01b0316336001600160a01b0316146111d45760405162461bcd60e51b81526004016104229061335d565b6111de828261206b565b856001600160801b0316600081116112085760405162461bcd60e51b8152600401610422906132a9565b6112178a8a8a8a8a8a8a61214e565b7fb4cb1faa7b4f2b837334e4a12fb94a1cfc320c32b70dd31e113d1795b9d0f0568a8a338b8b8b8b8b604051611254989796959493929190613407565b60405180910390a16112668a8a612030565b15610ba2576112758a8a61236c565b156112a2576112848a8a6123b6565b1561129d576112938a8a611966565b61129d8a8a611cd9565b610ba2565b610ba28a8a612432565b6001600160a01b03808a166000908152602081815260408083208c84529091529020600301548a918a91163314156112f65760405162461bcd60e51b81526004016104229061330b565b6001600160a01b0382811660009081526020818152604080832085845290915290206003015416156113c5576040516331a9108f60e11b8152600481018290526001600160a01b03831690636352211e90602401602060405180830381865afa158015611367573d6000803e3d6000fd5b505050506040513d601f19601f8201168201806040525081019061138b9190613340565b6001600160a01b0316336001600160a01b0316146113bb5760405162461bcd60e51b81526004016104229061335d565b6113c5828261206b565b876001600160801b0316600081116113ef5760405162461bcd60e51b8152600401610422906132a9565b600254869063ffffffff640100000000909104811690821610156114555760405162461bcd60e51b815260206004820152601f60248201527f42696420696e6372656173652070657263656e7461676520746f6f206c6f77006044820152606401610422565b876000808f6001600160a01b03166001600160a01b0316815260200190815260200160002060008e815260200190815260200160002060000160046101000a81548163ffffffff021916908363ffffffff160217905550866000808f6001600160a01b03166001600160a01b0316815260200190815260200160002060008e815260200190815260200160002060000160006101000a81548163ffffffff021916908363ffffffff1602179055506115128d8d8d8d8d8b8b6120d1565b50505050505050505050505050565b6001600160a01b038381166000908152602081815260408083208684529091529020600301548491849116331461156a5760405162461bcd60e51b81526004016104229061325d565b826001600160801b0316600081116115945760405162461bcd60e51b8152600401610422906132a9565b6001600160a01b03861660009081526020818152604080832088845290915290205484906001600160801b03600160801b909104811690821615806115ff57506002546001600160801b03828116916115fc91851690600160401b900463ffffffff1661194d565b10155b61161b5760405162461bcd60e51b8152600401610422906132d4565b6001600160a01b0388166000818152602081815260408083208b845282529182902060010180546001600160801b0319166001600160801b038b1690811790915582519384529083018a9052908201527fcc66420416a999e685e3938d2c6252ed709db214d0435f13da0b1e5339bcac769060600160405180910390a16116a288886123b6565b15610fc1576116b18888611966565b610fc18888611cd9565b6001600160a01b0382166000908152602081815260408083208484529091528120600101546001600160801b0316158015906105b75750506001600160a01b03919091166000908152602081815260408083209383529290522054600160801b90046001600160801b03161590565b6001600160a01b0391909116600090815260208181526040808320938352929052206002810180546001600160a01b03199081169091556001820180546001600160801b03169055600590910180549091169055565b6001600160a01b038481166000908152602081815260408083208784529091529020600601541680156118265760405163a9059cbb60e01b81526001600160a01b0384811660048301526024820184905282169063a9059cbb906044016020604051808303816000875af11580156117fc573d6000803e3d6000fd5b505050506040513d601f19601f82011682018060405250810190611820919061347d565b506118c6565b6000836001600160a01b031683614e2090604051600060405180830381858888f193505050503d8060008114611878576040519150601f19603f3d011682016040523d82523d6000602084013e61187d565b606091505b50509050806118c4576001600160a01b0384166000908152600160205260409020546118aa9084906134b5565b6001600160a01b0385166000908152600160205260409020555b505b5050505050565b6001600160a01b038216600090815260208181526040808320848452909152812054600160801b90046001600160801b0316801580159061194557506001600160a01b0384166000908152602081815260408083208684529091529020600101546001600160801b03808316600160801b9092041610155b949350505050565b600061271061195c83856134cd565b6105b79190613502565b6001600160a01b03828116600081815260208181526040808320868452909152908190206003015490516331a9108f60e11b815260048101859052921691829190636352211e90602401602060405180830381865afa1580156119cd573d6000803e3d6000fd5b505050506040513d601f19601f820116820180604052508101906119f19190613340565b6001600160a01b03161415611b24576040516323b872dd60e01b81526001600160a01b038281166004830152306024830152604482018490528416906323b872dd90606401600060405180830381600087803b158015611a5057600080fd5b505af1158015611a64573d6000803e3d6000fd5b50506040516331a9108f60e11b8152600481018590523092506001600160a01b0386169150636352211e90602401602060405180830381865afa158015611aaf573d6000803e3d6000fd5b505050506040513d601f19601f82011682018060405250810190611ad39190613340565b6001600160a01b031614611b1f5760405162461bcd60e51b81526020600482015260136024820152721b999d081d1c985b9cd9995c8819985a5b1959606a1b6044820152606401610422565b505050565b6040516331a9108f60e11b81526004810183905230906001600160a01b03851690636352211e90602401602060405180830381865afa158015611b6b573d6000803e3d6000fd5b505050506040513d601f19601f82011682018060405250810190611b8f9190613340565b6001600160a01b031614611b1f5760405162461bcd60e51b815260206004820152601660248201527514d95b1b195c88191bd95cdb89dd081bdddb8813919560521b6044820152606401610422565b42611be98383612497565b63ffffffff16611bf99190613516565b6001600160a01b03831660008181526020818152604080832086845282529182902080546fffffffffffffffff00000000000000001916600160401b67ffffffffffffffff96871681029190911791829055835194855291840186905204909216918101919091527fc1ce6cc1337b95ed3c849e00bffc0d93e89e5e80cc5d198db838140827ac7594906060016110b9565b6001600160a01b038216600090815260208181526040808320848452909152812054600160401b900467ffffffffffffffff16801580611945575067ffffffffffffffff1642109392505050565b6001600160a01b0382811660009081526020818152604080832085845290915281206003810154600290910154908316921690611d1685856124ea565b6001600160a01b038616600090815260208181526040808320888452909152902060010154909150600160801b90046001600160801b0316611d58868661172a565b611d6d868686846001600160801b0316612546565b6040516323b872dd60e01b81523060048201526001600160a01b038381166024830152604482018790528716906323b872dd90606401600060405180830381600087803b158015611dbd57600080fd5b505af1158015611dd1573d6000803e3d6000fd5b50505050611ddf868661206b565b604080516001600160a01b03808916825260208201889052808716928201929092526001600160801b0383166060820152818516608082015290831660a08201527f8df77c988c9550e96e43a66277f716818a74ed2188cdacb49d790623e6f225719060c00161097c565b6001600160a01b03918216600090815260208181526040808320938352929052206004015416151590565b6001600160a01b038481166000908152602081815260408083208784529091529020600301548591859116331415611eef5760405162461bcd60e51b815260206004820152601b60248201527f4f776e65722063616e6e6f7420626964206f6e206f776e204e465400000000006044820152606401610422565b85858585611eff8484848461266c565b611f4b5760405162461bcd60e51b815260206004820152601c60248201527f42696420746f20626520696e20737065636966696564204552433230000000006044820152606401610422565b898988611f598383836126e3565b611fa55760405162461bcd60e51b815260206004820152601e60248201527f4e6f7420656e6f7567682066756e647320746f20626964206f6e204e465400006044820152606401610422565b611fb08d8d8c6127c7565b7f0bf0ea388d6a006fc2bef3b87108c802bd770392a796a1ce7f6bd75aa84a79b88d8d338e8e60405161201e9594939291906001600160a01b0395861681526020810194909452918416604084015290921660608201526001600160801b0391909116608082015260a00190565b60405180910390a16115128d8d61282d565b6001600160a01b03919091166000908152602081815260408083209383529290522060010154600160801b90046001600160801b0316151590565b6001600160a01b03919091166000908152602081815260408083209383529290529081206001810180546001600160801b03191690559081556003810180546001600160a01b031990811690915560048201805482169055600690910180549091169055565b6120e087878787878787612873565b7f3379e969de5522101a0f0912ffe00daf15361dbcbf9cd5c328e0dd97aa25cdf98787338888886121118e8e612497565b61211b8f8f612b0d565b8a8a6040516121339a99989796959493929190613542565b60405180910390a1612145878761282d565b50505050505050565b8151815180821461219d5760405162461bcd60e51b8152602060048201526019602482015278526563697069656e747320213d2070657263656e746167657360381b6044820152606401610422565b826000805b82518110156121e4578281815181106121bd576121bd6135d0565b6020026020010151826121d091906135e6565b9150806121dc81613605565b9150506121a2565b506127108163ffffffff16111561223d5760405162461bcd60e51b815260206004820152601e60248201527f4665652070657263656e746167657320657863656564206d6178696d756d00006044820152606401610422565b6001600160a01b03891615612287576001600160a01b038b81166000908152602081815260408083208e8452909152902060060180546001600160a01b031916918b169190911790555b6001600160a01b038b166000908152602081815260408083208d8452825290912087516122bc92600790920191890190612c6c565b506001600160a01b038b166000908152602081815260408083208d8452825290912086516122f292600890920191880190612cd1565b505050506001600160a01b03978816600090815260208181526040808320998352989052969096206001810180546001600160801b03969096166001600160801b0319909616959095179094555050600482018054919095166001600160a01b031991821617909455600301805490931633179092555050565b60006123788383611e4a565b15806105b757506001600160a01b038084166000908152602081815260408083208684529091529020600481015460029091015482169116146105b7565b6001600160a01b0382166000908152602081815260408083208484529091528120600101546001600160801b0316801580159061194557506001600160a01b0384166000908152602081815260408083208684529091529020600101546001600160801b03808316600160801b90920416101591505092915050565b6001600160a01b0382811660009081526020818152604080832085845290915290206002810154600190910154911690600160801b90046001600160801b031661247c848461172a565b612491848484846001600160801b0316611780565b50505050565b6001600160a01b038216600090815260208181526040808320848452909152812054640100000000900463ffffffff16806124e3575050600254600160601b900463ffffffff166105ba565b90506105ba565b6001600160a01b03808316600090815260208181526040808320858452909152812060050154909116806124e35750506001600160a01b03808316600090815260208181526040808320858452909152902060020154166105ba565b6000805b6001600160a01b038616600090815260208181526040808320888452909152902060070154811015612656576001600160a01b038616600090815260208181526040808320888452909152812060080180546125db918691859081106125b2576125b26135d0565b6000918252602090912060088204015460079091166004026101000a900463ffffffff1661194d565b90506125e781846134b5565b6001600160a01b0388166000908152602081815260408083208a845290915290206007018054919450612643918991899186908110612628576126286135d0565b6000918252602090912001546001600160a01b031684611780565b508061264e81613605565b91505061254a565b506118c68585856126678587613620565b611780565b6001600160a01b0384811660009081526020818152604080832087845290915281206006015490911680156126d757341580156126ba5750836001600160a01b0316816001600160a01b0316145b80156126cf57506000836001600160801b0316115b915050611945565b50600095945050505050565b6001600160a01b0383166000908152602081815260408083208584529091528120600101546001600160801b031680158015906127325750806001600160801b0316836001600160801b031610155b156127415760019150506127c0565b60006127106127508787612b0d565b61275c906127106135e6565b6001600160a01b0388166000908152602081815260408083208a84529091529020600101546127a19163ffffffff1690600160801b90046001600160801b0316613637565b6127ab9190613666565b6001600160801b039081169085161015925050505b9392505050565b6001600160a01b0383811660009081526020818152604080832086845290915290206002810154600190910154911690600160801b90046001600160801b0316612812858585612b4a565b6001600160a01b038216156118c6576118c685858484611780565b61283782826123b6565b15612850576128468282611966565b610edc8282611cd9565b61285a82826118cd565b15610edc576128698282611966565b610edc8282611bde565b82846001600160801b03821615806128b157506002546001600160801b03828116916128ae91851690600160401b900463ffffffff1661194d565b10155b6128cd5760405162461bcd60e51b8152600401610422906132d4565b8351835180821461291c5760405162461bcd60e51b8152602060048201526019602482015278526563697069656e747320213d2070657263656e746167657360381b6044820152606401610422565b846000805b82518110156129635782818151811061293c5761293c6135d0565b60200260200101518261294f91906135e6565b91508061295b81613605565b915050612921565b506127108163ffffffff1611156129bc5760405162461bcd60e51b815260206004820152601e60248201527f4665652070657263656e746167657320657863656564206d6178696d756d00006044820152606401610422565b6001600160a01b038b1615612a29578a6000808f6001600160a01b03166001600160a01b0316815260200190815260200160002060008e815260200190815260200160002060060160006101000a8154816001600160a01b0302191690836001600160a01b031602179055505b6001600160a01b038d166000908152602081815260408083208f845282529091208951612a5e926007909201918b0190612c6c565b506001600160a01b038d166000908152602081815260408083208f845282529091208851612a94926008909201918a0190612cd1565b505050506001600160a01b03999099166000908152602081815260408083209a8352999052979097206001810180546001600160801b039687166001600160801b03199091161790558054958516600160801b0295909416949094178355505060030180546001600160a01b0319163317905550505050565b6001600160a01b03821660009081526020818152604080832084845290915281205463ffffffff16806124e357505060025463ffffffff166105ba565b6001600160a01b03838116600090815260208181526040808320868452909152902060060154168015612c34576040516323b872dd60e01b81523360048201523060248201526001600160801b03831660448201526001600160a01b038216906323b872dd906064016020604051808303816000875af1158015612bd2573d6000803e3d6000fd5b505050506040513d601f19601f82011682018060405250810190612bf6919061347d565b506001600160a01b038416600090815260208181526040808320868452909152902060010180546001600160801b03808516600160801b0291161790555b50506001600160a01b039091166000908152602081815260408083209383529290522060020180546001600160a01b03191633179055565b828054828255906000526020600020908101928215612cc1579160200282015b82811115612cc157825182546001600160a01b0319166001600160a01b03909116178255602090920191600190910190612c8c565b50612ccd929150612d77565b5090565b82805482825590600052602060002090600701600890048101928215612cc15791602002820160005b83821115612d3e57835183826101000a81548163ffffffff021916908363ffffffff1602179055509260200192600401602081600301049283019260010302612cfa565b8015612d6e5782816101000a81549063ffffffff0219169055600401602081600301049283019260010302612d3e565b5050612ccd9291505b5b80821115612ccd5760008155600101612d78565b6001600160a01b0381168114612da157600080fd5b50565b60008060408385031215612db757600080fd5b8235612dc281612d8c565b946020939093013593505050565b600080600060608486031215612de557600080fd5b8335612df081612d8c565b9250602084013591506040840135612e0781612d8c565b809150509250925092565b80356001600160801b0381168114612e2957600080fd5b919050565b600080600060608486031215612e4357600080fd5b8335612e4e81612d8c565b925060208401359150612e6360408501612e12565b90509250925092565b600080600080600060a08688031215612e8457600080fd5b8535612e8f81612d8c565b9450602086013593506040860135612ea681612d8c565b9250612eb460608701612e12565b91506080860135612ec481612d8c565b809150509295509295909350565b634e487b7160e01b600052604160045260246000fd5b604051601f8201601f1916810167ffffffffffffffff81118282101715612f1157612f11612ed2565b604052919050565b600067ffffffffffffffff821115612f3357612f33612ed2565b5060051b60200190565b600082601f830112612f4e57600080fd5b81356020612f63612f5e83612f19565b612ee8565b82815260059290921b84018101918181019086841115612f8257600080fd5b8286015b84811015612fa6578035612f9981612d8c565b8352918301918301612f86565b509695505050505050565b803563ffffffff81168114612e2957600080fd5b600082601f830112612fd657600080fd5b81356020612fe6612f5e83612f19565b82815260059290921b8401810191818101908684111561300557600080fd5b8286015b84811015612fa65761301a81612fb1565b8352918301918301613009565b600080600080600080600060e0888a03121561304257600080fd5b873561304d81612d8c565b965060208801359550604088013561306481612d8c565b945061307260608901612e12565b935061308060808901612e12565b925060a088013567ffffffffffffffff8082111561309d57600080fd5b6130a98b838c01612f3d565b935060c08a01359150808211156130bf57600080fd5b506130cc8a828b01612fc5565b91505092959891949750929550565b600080600080608085870312156130f157600080fd5b84356130fc81612d8c565b935060208501359250604085013561311381612d8c565b915061312160608601612e12565b905092959194509250565b600080600080600080600060e0888a03121561314757600080fd5b873561315281612d8c565b965060208801359550604088013561316981612d8c565b945061317760608901612e12565b9350608088013561308081612d8c565b60008060008060008060008060006101208a8c0312156131a657600080fd5b89356131b181612d8c565b985060208a0135975060408a01356131c881612d8c565b96506131d660608b01612e12565b95506131e460808b01612e12565b94506131f260a08b01612fb1565b935061320060c08b01612fb1565b925060e08a013567ffffffffffffffff8082111561321d57600080fd5b6132298d838e01612f3d565b93506101008c013591508082111561324057600080fd5b5061324d8c828d01612fc5565b9150509295985092959850929598565b6020808252600f908201526e27b7363c9037333a1039b2b63632b960891b604082015260600190565b6001600160a01b0393841681526020810192909252909116604082015260600190565b602080825260119082015270050726963652063616e6e6f74206265203607c1b604082015260600190565b6020808252601d908201527f4d696e5072696365203e20383025206f66206275794e6f775072696365000000604082015260600190565b6020808252818101527f41756374696f6e20616c72656164792073746172746564206279206f776e6572604082015260600190565b60006020828403121561335257600080fd5b81516105b781612d8c565b60208082526016908201527514d95b99195c88191bd95cdb89dd081bdddb8813919560521b604082015260600190565b600081518084526020808501945080840160005b838110156133c65781516001600160a01b0316875295820195908201906001016133a1565b509495945050505050565b600081518084526020808501945080840160005b838110156133c657815163ffffffff16875295820195908201906001016133e5565b6001600160a01b03898116825260208201899052878116604083015286811660608301526001600160801b0386166080830152841660a082015261010060c0820181905260009061345a8382018661338d565b905082810360e084015261346e81856133d1565b9b9a5050505050505050505050565b60006020828403121561348f57600080fd5b815180151581146105b757600080fd5b634e487b7160e01b600052601160045260246000fd5b600082198211156134c8576134c861349f565b500190565b60008160001904831182151516156134e7576134e761349f565b500290565b634e487b7160e01b600052601260045260246000fd5b600082613511576135116134ec565b500490565b600067ffffffffffffffff8083168185168083038211156135395761353961349f565b01949350505050565b6001600160a01b038b81168252602082018b90528981166040830152881660608201526001600160801b038781166080830152861660a082015263ffffffff85811660c0830152841660e082015261014061010082018190526000906135aa8382018661338d565b90508281036101208401526135bf81856133d1565b9d9c50505050505050505050505050565b634e487b7160e01b600052603260045260246000fd5b600063ffffffff8083168185168083038211156135395761353961349f565b60006000198214156136195761361961349f565b5060010190565b6000828210156136325761363261349f565b500390565b60006001600160801b038083168185168183048111821515161561365d5761365d61349f565b02949350505050565b60006001600160801b0380841680613680576136806134ec565b9216919091049291505056fea2646970667358221220f4553484fe60f9e8369eade85773480811aedf5f18c83a8624520b9583fe71fc64736f6c634300080b0033",
  "immutableReferences": {},
  "source": "//SPDX-License-Identifier: Unlicense\npragma solidity ^0.8.0;\n\nimport \"openzeppelin-solidity/contracts/token/ERC721/IERC721.sol\";\nimport \"openzeppelin-solidity/contracts/token/ERC721/IERC721Receiver.sol\";\nimport \"openzeppelin-solidity/contracts/token/ERC20/IERC20.sol\";\n\n/// @title An Auction Contract for bidding and selling single and batched NFTs\n/// @author Avo Labs GmbH\n/// @notice This contract can be used for auctioning any NFTs, and accepts any ERC20 token as payment\ncontract NFTAuction {\n    mapping(address => mapping(uint256 => Auction)) public nftContractAuctions;\n    mapping(address => uint256) failedTransferCredits;\n    //Each Auction is unique to each NFT (contract + id pairing).\n    struct Auction {\n        //map token ID to\n        uint32 bidIncreasePercentage;\n        uint32 auctionBidPeriod; //Increments the length of time the auction is open in which a new bid can be made after each bid.\n        uint64 auctionEnd;\n        uint128 minPrice;\n        uint128 buyNowPrice;\n        uint128 nftHighestBid;\n        address nftHighestBidder;\n        address nftSeller;\n        address whitelistedBuyer; //The seller can specify a whitelisted address for a sale (this is effectively a direct sale).\n        address nftRecipient; //The bidder can specify a recipient for the NFT if their bid is successful.\n        address ERC20Token; // The seller can specify an ERC20 token that can be used to bid or purchase the NFT.\n        address[] feeRecipients;\n        uint32[] feePercentages;\n    }\n    /*\n     * Default values that are used if not specified by the NFT seller.\n     */\n    uint32 public defaultBidIncreasePercentage;\n    uint32 public minimumSettableIncreasePercentage;\n    uint32 public maximumMinPricePercentage;\n    uint32 public defaultAuctionBidPeriod;\n\n    /*\n                 EVENTS            \n      */\n\n    event NftAuctionCreated(\n        address nftContractAddress,\n        uint256 tokenId,\n        address nftSeller,\n        address erc20Token,\n        uint128 minPrice,\n        uint128 buyNowPrice,\n        uint32 auctionBidPeriod,\n        uint32 bidIncreasePercentage,\n        address[] feeRecipients,\n        uint32[] feePercentages\n    );\n\n    event SaleCreated(\n        address nftContractAddress,\n        uint256 tokenId,\n        address nftSeller,\n        address erc20Token,\n        uint128 buyNowPrice,\n        address whitelistedBuyer,\n        address[] feeRecipients,\n        uint32[] feePercentages\n    );\n\n    event BidMade(\n        address nftContractAddress,\n        uint256 tokenId,\n        address bidder,\n        address erc20Token,\n        uint256 tokenAmount\n    );\n\n    event AuctionPeriodUpdated(\n        address nftContractAddress,\n        uint256 tokenId,\n        uint64 auctionEndPeriod\n    );\n\n    event NFTTransferredAndSellerPaid(\n        address nftContractAddress,\n        uint256 tokenId,\n        address nftSeller,\n        uint128 nftHighestBid,\n        address nftHighestBidder,\n        address nftRecipient\n    );\n\n    event AuctionSettled(\n        address nftContractAddress,\n        uint256 tokenId,\n        address auctionSettler\n    );\n\n    event AuctionWithdrawn(\n        address nftContractAddress,\n        uint256 tokenId,\n        address nftOwner\n    );\n\n    event BidWithdrawn(\n        address nftContractAddress,\n        uint256 tokenId,\n        address highestBidder\n    );\n\n    event WhitelistedBuyerUpdated(\n        address nftContractAddress,\n        uint256 tokenId,\n        address newWhitelistedBuyer\n    );\n\n    event MinimumPriceUpdated(\n        address nftContractAddress,\n        uint256 tokenId,\n        uint256 newMinPrice\n    );\n\n    event BuyNowPriceUpdated(\n        address nftContractAddress,\n        uint256 tokenId,\n        uint128 newBuyNowPrice\n    );\n    event HighestBidTaken(address nftContractAddress, uint256 tokenId);\n    /**********************************/\n    /*\n                   END             \n                  EVENTS           \n      */\n    /**********************************/\n    /*\n                MODIFIERS          \n      */\n\n    modifier isAuctionNotStartedByOwner(\n        address _nftContractAddress,\n        uint256 _tokenId\n    ) {\n        require(\n            nftContractAuctions[_nftContractAddress][_tokenId].nftSeller !=\n                msg.sender,\n            \"Auction already started by owner\"\n        );\n\n        if (\n            nftContractAuctions[_nftContractAddress][_tokenId].nftSeller !=\n            address(0)\n        ) {\n            require(\n                msg.sender == IERC721(_nftContractAddress).ownerOf(_tokenId),\n                \"Sender doesn't own NFT\"\n            );\n\n            _resetAuction(_nftContractAddress, _tokenId);\n        }\n        _;\n    }\n\n    modifier auctionOngoing(address _nftContractAddress, uint256 _tokenId) {\n        require(\n            _isAuctionOngoing(_nftContractAddress, _tokenId),\n            \"Auction has ended\"\n        );\n        _;\n    }\n\n    modifier priceGreaterThanZero(uint256 _price) {\n        require(_price > 0, \"Price cannot be 0\");\n        _;\n    }\n    /*\n     * The minimum price must be 80% of the buyNowPrice(if set).\n     */\n    modifier minPriceDoesNotExceedLimit(\n        uint128 _buyNowPrice,\n        uint128 _minPrice\n    ) {\n        require(\n            _buyNowPrice == 0 ||\n                _getPortionOfBid(_buyNowPrice, maximumMinPricePercentage) >=\n                _minPrice,\n            \"MinPrice > 80% of buyNowPrice\"\n        );\n        _;\n    }\n\n    modifier notNftSeller(address _nftContractAddress, uint256 _tokenId) {\n        require(\n            msg.sender !=\n                nftContractAuctions[_nftContractAddress][_tokenId].nftSeller,\n            \"Owner cannot bid on own NFT\"\n        );\n        _;\n    }\n    modifier onlyNftSeller(address _nftContractAddress, uint256 _tokenId) {\n        require(\n            msg.sender ==\n                nftContractAuctions[_nftContractAddress][_tokenId].nftSeller,\n            \"Only nft seller\"\n        );\n        _;\n    }\n    /*\n     * The bid amount was either equal the buyNowPrice or it must be higher than the previous\n     * bid by the specified bid increase percentage.\n     */\n    modifier bidAmountMeetsBidRequirements(\n        address _nftContractAddress,\n        uint256 _tokenId,\n        uint128 _tokenAmount\n    ) {\n        require(\n            _doesBidMeetBidRequirements(\n                _nftContractAddress,\n                _tokenId,\n                _tokenAmount\n            ),\n            \"Not enough funds to bid on NFT\"\n        );\n        _;\n    }\n    // check if the highest bidder can purchase this NFT.\n    modifier onlyApplicableBuyer(\n        address _nftContractAddress,\n        uint256 _tokenId\n    ) {\n        require(\n            !_isWhitelistedSale(_nftContractAddress, _tokenId) ||\n                nftContractAuctions[_nftContractAddress][_tokenId]\n                    .whitelistedBuyer ==\n                msg.sender,\n            \"Only the whitelisted buyer\"\n        );\n        _;\n    }\n\n    modifier minimumBidNotMade(address _nftContractAddress, uint256 _tokenId) {\n        require(\n            !_isMinimumBidMade(_nftContractAddress, _tokenId),\n            \"The auction has a valid bid made\"\n        );\n        _;\n    }\n\n    /*\n     * Payment is accepted if the payment is made in the ERC20 token or ETH specified by the seller.\n     * Early bids on NFTs not yet up for auction must be made in ETH.\n     */\n    modifier paymentAccepted(\n        address _nftContractAddress,\n        uint256 _tokenId,\n        address _erc20Token,\n        uint128 _tokenAmount\n    ) {\n        require(\n            _isPaymentAccepted(\n                _nftContractAddress,\n                _tokenId,\n                _erc20Token,\n                _tokenAmount\n            ),\n            \"Bid to be in specified ERC20\"\n        );\n        _;\n    }\n\n    modifier isAuctionOver(address _nftContractAddress, uint256 _tokenId) {\n        require(\n            !_isAuctionOngoing(_nftContractAddress, _tokenId),\n            \"Auction is not yet over\"\n        );\n        _;\n    }\n\n    modifier notZeroAddress(address _address) {\n        require(_address != address(0), \"Cannot specify 0 address\");\n        _;\n    }\n\n    modifier increasePercentageAboveMinimum(uint32 _bidIncreasePercentage) {\n        require(\n            _bidIncreasePercentage >= minimumSettableIncreasePercentage,\n            \"Bid increase percentage too low\"\n        );\n        _;\n    }\n\n    modifier isFeePercentagesLessThanMaximum(uint32[] memory _feePercentages) {\n        uint32 totalPercent;\n        for (uint256 i = 0; i < _feePercentages.length; i++) {\n            totalPercent = totalPercent + _feePercentages[i];\n        }\n        require(totalPercent <= 10000, \"Fee percentages exceed maximum\");\n        _;\n    }\n\n    modifier correctFeeRecipientsAndPercentages(\n        uint256 _recipientsLength,\n        uint256 _percentagesLength\n    ) {\n        require(\n            _recipientsLength == _percentagesLength,\n            \"Recipients != percentages\"\n        );\n        _;\n    }\n\n    modifier isNotASale(address _nftContractAddress, uint256 _tokenId) {\n        require(\n            !_isASale(_nftContractAddress, _tokenId),\n            \"Not applicable for a sale\"\n        );\n        _;\n    }\n\n    /**********************************/\n    /*\n                   END             \n                MODIFIERS          \n      */\n    /**********************************/\n    // constructor\n    constructor() {\n        defaultBidIncreasePercentage = 100;\n        defaultAuctionBidPeriod = 86400; //1 day\n        minimumSettableIncreasePercentage = 100;\n        maximumMinPricePercentage = 8000;\n    }\n\n    /*\n          AUCTION CHECK FUNCTIONS   \n      */\n    function _isAuctionOngoing(address _nftContractAddress, uint256 _tokenId)\n        internal\n        view\n        returns (bool)\n    {\n        uint64 auctionEndTimestamp = nftContractAuctions[_nftContractAddress][\n            _tokenId\n        ].auctionEnd;\n        //if the auctionEnd is set to 0, the auction is technically on-going, however\n        //the minimum bid price (minPrice) has not yet been met.\n        return (auctionEndTimestamp == 0 ||\n            block.timestamp < auctionEndTimestamp);\n    }\n\n    /*\n     * Check if a bid has been made. This is applicable in the early bid scenario\n     * to ensure that if an auction is created after an early bid, the auction\n     * begins appropriately or is settled if the buy now price is met.\n     */\n    function _isABidMade(address _nftContractAddress, uint256 _tokenId)\n        internal\n        view\n        returns (bool)\n    {\n        return (nftContractAuctions[_nftContractAddress][_tokenId]\n            .nftHighestBid > 0);\n    }\n\n    /*\n     *if the minPrice is set by the seller, check that the highest bid meets or exceeds that price.\n     */\n    function _isMinimumBidMade(address _nftContractAddress, uint256 _tokenId)\n        internal\n        view\n        returns (bool)\n    {\n        uint128 minPrice = nftContractAuctions[_nftContractAddress][_tokenId]\n            .minPrice;\n        return\n            minPrice > 0 &&\n            (nftContractAuctions[_nftContractAddress][_tokenId].nftHighestBid >=\n                minPrice);\n    }\n\n    /*\n     * If the buy now price is set by the seller, check that the highest bid meets that price.\n     */\n    function _isBuyNowPriceMet(address _nftContractAddress, uint256 _tokenId)\n        internal\n        view\n        returns (bool)\n    {\n        uint128 buyNowPrice = nftContractAuctions[_nftContractAddress][_tokenId]\n            .buyNowPrice;\n        return\n            buyNowPrice > 0 &&\n            nftContractAuctions[_nftContractAddress][_tokenId].nftHighestBid >=\n            buyNowPrice;\n    }\n\n    /*\n     * Check that a bid is applicable for the purchase of the NFT.\n     * In the case of a sale: the bid needs to meet the buyNowPrice.\n     * In the case of an auction: the bid needs to be a % higher than the previous bid.\n     */\n    function _doesBidMeetBidRequirements(\n        address _nftContractAddress,\n        uint256 _tokenId,\n        uint128 _tokenAmount\n    ) internal view returns (bool) {\n        uint128 buyNowPrice = nftContractAuctions[_nftContractAddress][_tokenId]\n            .buyNowPrice;\n        //if buyNowPrice is met, ignore increase percentage\n        if (\n            buyNowPrice > 0 && _tokenAmount >= buyNowPrice\n        ) {\n            return true;\n        }\n        //if the NFT is up for auction, the bid needs to be a % higher than the previous bid\n        uint256 bidIncreaseAmount = (nftContractAuctions[_nftContractAddress][\n            _tokenId\n        ].nftHighestBid *\n            (10000 +\n                _getBidIncreasePercentage(_nftContractAddress, _tokenId))) /\n            10000;\n        return (_tokenAmount >= bidIncreaseAmount);\n    }\n\n    /*\n     * An NFT is up for sale if the buyNowPrice is set, but the minPrice is not set.\n     * Therefore the only way to conclude the NFT sale is to meet the buyNowPrice.\n     */\n    function _isASale(address _nftContractAddress, uint256 _tokenId)\n        internal\n        view\n        returns (bool)\n    {\n        return (nftContractAuctions[_nftContractAddress][_tokenId].buyNowPrice >\n            0 &&\n            nftContractAuctions[_nftContractAddress][_tokenId].minPrice == 0);\n    }\n\n    function _isWhitelistedSale(address _nftContractAddress, uint256 _tokenId)\n        internal\n        view\n        returns (bool)\n    {\n        return (nftContractAuctions[_nftContractAddress][_tokenId]\n            .whitelistedBuyer != address(0));\n    }\n\n    /*\n     * The highest bidder is allowed to purchase the NFT if\n     * no whitelisted buyer is set by the NFT seller.\n     * Otherwise, the highest bidder must equal the whitelisted buyer.\n     */\n    function _isHighestBidderAllowedToPurchaseNFT(\n        address _nftContractAddress,\n        uint256 _tokenId\n    ) internal view returns (bool) {\n        return\n            (!_isWhitelistedSale(_nftContractAddress, _tokenId)) ||\n            _isHighestBidderWhitelisted(_nftContractAddress, _tokenId);\n    }\n\n    function _isHighestBidderWhitelisted(\n        address _nftContractAddress,\n        uint256 _tokenId\n    ) internal view returns (bool) {\n        return (nftContractAuctions[_nftContractAddress][_tokenId]\n            .nftHighestBidder ==\n            nftContractAuctions[_nftContractAddress][_tokenId]\n                .whitelistedBuyer);\n    }\n\n    /**\n     * Payment is accepted in the following scenarios:\n     * (1) Auction already created - can accept ETH or Specified Token\n     *  --------> Cannot bid with ETH & an ERC20 Token together in any circumstance<------\n     * (2) Auction not created - only ETH accepted (cannot early bid with an ERC20 Token\n     * (3) Cannot make a zero bid (no ETH or Token amount)\n     */\n    function _isPaymentAccepted(\n        address _nftContractAddress,\n        uint256 _tokenId,\n        address _bidERC20Token,\n        uint128 _tokenAmount\n    ) internal view returns (bool) {\n        address auctionERC20Token = nftContractAuctions[_nftContractAddress][\n            _tokenId\n        ].ERC20Token;\n        if (_isERC20Auction(auctionERC20Token)) {\n            return\n                (msg.value == 0 &&\n                auctionERC20Token == _bidERC20Token &&\n                _tokenAmount > 0);\n        } \n        else{\n            return false;\n        }\n    }\n\n    function _isERC20Auction(address _auctionERC20Token)\n        internal\n        pure\n        returns (bool)\n    {\n        return _auctionERC20Token != address(0);\n    }\n\n    /*\n     * Returns the percentage of the total bid (used to calculate fee payments)\n     */\n    function _getPortionOfBid(uint256 _totalBid, uint256 _percentage)\n        internal\n        pure\n        returns (uint256)\n    {\n        return (_totalBid * (_percentage)) / 10000;\n    }\n\n    /**********************************/\n    /*\n                   END              \n          AUCTION CHECK FUNCTIONS   \n      */\n    /**********************************/\n    /*\n          DEFAULT GETTER FUNCTIONS  \n      */\n    /*****************************************************************\n     * These functions check if the applicable auction parameter has *\n     * been set by the NFT seller. If not, return the default value. *\n     *****************************************************************/\n\n    function _getBidIncreasePercentage(\n        address _nftContractAddress,\n        uint256 _tokenId\n    ) internal view returns (uint32) {\n        uint32 bidIncreasePercentage = nftContractAuctions[_nftContractAddress][\n            _tokenId\n        ].bidIncreasePercentage;\n\n        if (bidIncreasePercentage == 0) {\n            return defaultBidIncreasePercentage;\n        } else {\n            return bidIncreasePercentage;\n        }\n    }\n\n    function _getAuctionBidPeriod(address _nftContractAddress, uint256 _tokenId)\n        internal\n        view\n        returns (uint32)\n    {\n        uint32 auctionBidPeriod = nftContractAuctions[_nftContractAddress][\n            _tokenId\n        ].auctionBidPeriod;\n\n        if (auctionBidPeriod == 0) {\n            return defaultAuctionBidPeriod;\n        } else {\n            return auctionBidPeriod;\n        }\n    }\n\n    /*\n     * The default value for the NFT recipient is the highest bidder\n     */\n    function _getNftRecipient(address _nftContractAddress, uint256 _tokenId)\n        internal\n        view\n        returns (address)\n    {\n        address nftRecipient = nftContractAuctions[_nftContractAddress][\n            _tokenId\n        ].nftRecipient;\n\n        if (nftRecipient == address(0)) {\n            return\n                nftContractAuctions[_nftContractAddress][_tokenId]\n                    .nftHighestBidder;\n        } else {\n            return nftRecipient;\n        }\n    }\n\n    /**********************************/\n    /*\n                   END              \n          DEFAULT GETTER FUNCTIONS  \n      */\n    /**********************************/\n\n    /*\n        TRANSFER NFTS TO CONTRACT   \n      */\n    function _transferNftToAuctionContract(\n        address _nftContractAddress,\n        uint256 _tokenId\n    ) internal {\n        address _nftSeller = nftContractAuctions[_nftContractAddress][_tokenId]\n            .nftSeller;\n        if (IERC721(_nftContractAddress).ownerOf(_tokenId) == _nftSeller) {\n            IERC721(_nftContractAddress).transferFrom(\n                _nftSeller,\n                address(this),\n                _tokenId\n            );\n            require(\n                IERC721(_nftContractAddress).ownerOf(_tokenId) == address(this),\n                \"nft transfer failed\"\n            );\n        } else {\n            require(\n                IERC721(_nftContractAddress).ownerOf(_tokenId) == address(this),\n                \"Seller doesn't own NFT\"\n            );\n        }\n    }\n\n    /**********************************/\n    /*\n                   END              \n        TRANSFER NFTS TO CONTRACT   \n      */\n    /**********************************/\n\n    /*\n             AUCTION CREATION       \n      */\n\n    /**\n     * Setup parameters applicable to all auctions and whitelised sales:\n     * -> ERC20 Token for payment (if specified by the seller) : _erc20Token\n     * -> minimum price : _minPrice\n     * -> buy now price : _buyNowPrice\n     * -> the nft seller: msg.sender\n     * -> The fee recipients & their respective percentages for a sucessful auction/sale\n     */\n    function _setupAuction(\n        address _nftContractAddress,\n        uint256 _tokenId,\n        address _erc20Token,\n        uint128 _minPrice,\n        uint128 _buyNowPrice,\n        address[] memory _feeRecipients,\n        uint32[] memory _feePercentages\n    )\n        internal\n        minPriceDoesNotExceedLimit(_buyNowPrice, _minPrice)\n        correctFeeRecipientsAndPercentages(\n            _feeRecipients.length,\n            _feePercentages.length\n        )\n        isFeePercentagesLessThanMaximum(_feePercentages)\n    {\n        if (_erc20Token != address(0)) {\n            nftContractAuctions[_nftContractAddress][_tokenId]\n                .ERC20Token = _erc20Token;\n        }\n        nftContractAuctions[_nftContractAddress][_tokenId]\n            .feeRecipients = _feeRecipients;\n        nftContractAuctions[_nftContractAddress][_tokenId]\n            .feePercentages = _feePercentages;\n        nftContractAuctions[_nftContractAddress][_tokenId]\n            .buyNowPrice = _buyNowPrice;\n        nftContractAuctions[_nftContractAddress][_tokenId].minPrice = _minPrice;\n        nftContractAuctions[_nftContractAddress][_tokenId].nftSeller = msg\n            .sender;\n    }\n\n    function _createNewNftAuction(\n        address _nftContractAddress,\n        uint256 _tokenId,\n        address _erc20Token,\n        uint128 _minPrice,\n        uint128 _buyNowPrice,\n        address[] memory _feeRecipients,\n        uint32[] memory _feePercentages\n    ) internal {\n        // Sending the NFT to this contract\n        _setupAuction(\n            _nftContractAddress,\n            _tokenId,\n            _erc20Token,\n            _minPrice,\n            _buyNowPrice,\n            _feeRecipients,\n            _feePercentages\n        );\n        emit NftAuctionCreated(\n            _nftContractAddress,\n            _tokenId,\n            msg.sender,\n            _erc20Token,\n            _minPrice,\n            _buyNowPrice,\n            _getAuctionBidPeriod(_nftContractAddress, _tokenId),\n            _getBidIncreasePercentage(_nftContractAddress, _tokenId),\n            _feeRecipients,\n            _feePercentages\n        );\n        _updateOngoingAuction(_nftContractAddress, _tokenId);\n    }\n\n    /**\n     * Create an auction that uses the default bid increase percentage\n     * & the default auction bid period.\n     */\n    function createDefaultNftAuction(\n        address _nftContractAddress,\n        uint256 _tokenId,\n        address _erc20Token,\n        uint128 _minPrice,\n        uint128 _buyNowPrice,\n        address[] memory _feeRecipients,\n        uint32[] memory _feePercentages\n    )\n        external\n        isAuctionNotStartedByOwner(_nftContractAddress, _tokenId)\n        priceGreaterThanZero(_minPrice)\n    {\n        _createNewNftAuction(\n            _nftContractAddress,\n            _tokenId,\n            _erc20Token,\n            _minPrice,\n            _buyNowPrice,\n            _feeRecipients,\n            _feePercentages\n        );\n    }\n\n    function createNewNftAuction(\n        address _nftContractAddress,\n        uint256 _tokenId,\n        address _erc20Token,\n        uint128 _minPrice,\n        uint128 _buyNowPrice,\n        uint32 _auctionBidPeriod, //this is the time that the auction lasts until another bid occurs\n        uint32 _bidIncreasePercentage,\n        address[] memory _feeRecipients,\n        uint32[] memory _feePercentages\n    )\n        external\n        isAuctionNotStartedByOwner(_nftContractAddress, _tokenId)\n        priceGreaterThanZero(_minPrice)\n        increasePercentageAboveMinimum(_bidIncreasePercentage)\n    {\n        nftContractAuctions[_nftContractAddress][_tokenId]\n            .auctionBidPeriod = _auctionBidPeriod;\n        nftContractAuctions[_nftContractAddress][_tokenId]\n            .bidIncreasePercentage = _bidIncreasePercentage;\n        _createNewNftAuction(\n            _nftContractAddress,\n            _tokenId,\n            _erc20Token,\n            _minPrice,\n            _buyNowPrice,\n            _feeRecipients,\n            _feePercentages\n        );\n    }\n\n    /**********************************/\n    /*\n                   END              \n             AUCTION CREATION       \n      */\n    /**********************************/\n\n    /*\n                  SALES             \n      */\n\n    /********************************************************************\n     * Allows for a standard sale mechanism where the NFT seller can    *\n     * can select an address to be whitelisted. This address is then    *\n     * allowed to make a bid on the NFT. No other address can bid on    *\n     * the NFT.                                                         *\n     ********************************************************************/\n    function _setupSale(\n        address _nftContractAddress,\n        uint256 _tokenId,\n        address _erc20Token,\n        uint128 _buyNowPrice,\n        address _whitelistedBuyer,\n        address[] memory _feeRecipients,\n        uint32[] memory _feePercentages\n    )\n        internal\n        correctFeeRecipientsAndPercentages(\n            _feeRecipients.length,\n            _feePercentages.length\n        )\n        isFeePercentagesLessThanMaximum(_feePercentages)\n    {\n        if (_erc20Token != address(0)) {\n            nftContractAuctions[_nftContractAddress][_tokenId]\n                .ERC20Token = _erc20Token;\n        }\n        nftContractAuctions[_nftContractAddress][_tokenId]\n            .feeRecipients = _feeRecipients;\n        nftContractAuctions[_nftContractAddress][_tokenId]\n            .feePercentages = _feePercentages;\n        nftContractAuctions[_nftContractAddress][_tokenId]\n            .buyNowPrice = _buyNowPrice;\n        nftContractAuctions[_nftContractAddress][_tokenId]\n            .whitelistedBuyer = _whitelistedBuyer;\n        nftContractAuctions[_nftContractAddress][_tokenId].nftSeller = msg\n            .sender;\n    }\n\n    function createSale(\n        address _nftContractAddress,\n        uint256 _tokenId,\n        address _erc20Token,\n        uint128 _buyNowPrice,\n        address _whitelistedBuyer,\n        address[] memory _feeRecipients,\n        uint32[] memory _feePercentages\n    )\n        external\n        isAuctionNotStartedByOwner(_nftContractAddress, _tokenId)\n        priceGreaterThanZero(_buyNowPrice)\n    {\n        //min price = 0\n        _setupSale(\n            _nftContractAddress,\n            _tokenId,\n            _erc20Token,\n            _buyNowPrice,\n            _whitelistedBuyer,\n            _feeRecipients,\n            _feePercentages\n        );\n\n        emit SaleCreated(\n            _nftContractAddress,\n            _tokenId,\n            msg.sender,\n            _erc20Token,\n            _buyNowPrice,\n            _whitelistedBuyer,\n            _feeRecipients,\n            _feePercentages\n        );\n        //check if buyNowPrice is meet and conclude sale, otherwise reverse the early bid\n        if (_isABidMade(_nftContractAddress, _tokenId)) {\n            if (\n                //we only revert the underbid if the seller specifies a different\n                //whitelisted buyer to the highest bidder\n                _isHighestBidderAllowedToPurchaseNFT(\n                    _nftContractAddress,\n                    _tokenId\n                )\n            ) {\n                if (_isBuyNowPriceMet(_nftContractAddress, _tokenId)) {\n                    _transferNftToAuctionContract(\n                        _nftContractAddress,\n                        _tokenId\n                    );\n                    _transferNftAndPaySeller(_nftContractAddress, _tokenId);\n                }\n            } else {\n                _reverseAndResetPreviousBid(_nftContractAddress, _tokenId);\n            }\n        }\n    }\n\n    /**********************************/\n    /*\n                   END              \n                  SALES             \n      */\n    /**********************************/\n\n    /*\n              BID FUNCTIONS        \n      */\n\n    /********************************************************************\n     * Make bids with ETH or an ERC20 Token specified by the NFT seller.*\n     * Additionally, a buyer can pay the asking price to conclude a sale*\n     * of an NFT.                                                      *\n     ********************************************************************/\n\n    function _makeBid(\n        address _nftContractAddress,\n        uint256 _tokenId,\n        address _erc20Token,\n        uint128 _tokenAmount\n    )\n        internal\n        notNftSeller(_nftContractAddress, _tokenId)\n        paymentAccepted(\n            _nftContractAddress,\n            _tokenId,\n            _erc20Token,\n            _tokenAmount\n        )\n        bidAmountMeetsBidRequirements(\n            _nftContractAddress,\n            _tokenId,\n            _tokenAmount\n        )\n    {\n        _reversePreviousBidAndUpdateHighestBid(\n            _nftContractAddress,\n            _tokenId,\n            _tokenAmount\n        );\n        emit BidMade(\n            _nftContractAddress,\n            _tokenId,\n            msg.sender,\n            _erc20Token,\n            _tokenAmount\n        );\n        _updateOngoingAuction(_nftContractAddress, _tokenId);\n    }\n\n    function makeBid(\n        address _nftContractAddress,\n        uint256 _tokenId,\n        address _erc20Token,\n        uint128 _tokenAmount\n    )\n        external\n        auctionOngoing(_nftContractAddress, _tokenId)\n        onlyApplicableBuyer(_nftContractAddress, _tokenId)\n    {\n        _makeBid(_nftContractAddress, _tokenId, _erc20Token, _tokenAmount);\n    }\n\n    function makeCustomBid(\n        address _nftContractAddress,\n        uint256 _tokenId,\n        address _erc20Token,\n        uint128 _tokenAmount,\n        address _nftRecipient\n    )\n        external\n        auctionOngoing(_nftContractAddress, _tokenId)\n        notZeroAddress(_nftRecipient)\n        onlyApplicableBuyer(_nftContractAddress, _tokenId)\n    {\n        nftContractAuctions[_nftContractAddress][_tokenId]\n            .nftRecipient = _nftRecipient;\n        _makeBid(_nftContractAddress, _tokenId, _erc20Token, _tokenAmount);\n    }\n\n    /**********************************/\n    /*\n                   END              \n              BID FUNCTIONS         \n      */\n    /**********************************/\n\n    /*\n             UPDATE AUCTION         \n      */\n\n    /***************************************************************\n     * Settle an auction or sale if the buyNowPrice is met or set  *\n     *  auction period to begin if the minimum price has been met. *\n     ***************************************************************/\n    function _updateOngoingAuction(\n        address _nftContractAddress,\n        uint256 _tokenId\n    ) internal {\n        if (_isBuyNowPriceMet(_nftContractAddress, _tokenId)) {\n            _transferNftToAuctionContract(_nftContractAddress, _tokenId);\n            _transferNftAndPaySeller(_nftContractAddress, _tokenId);\n            return;\n        }\n        //min price not set, nft not up for auction yet\n        if (_isMinimumBidMade(_nftContractAddress, _tokenId)) {\n            _transferNftToAuctionContract(_nftContractAddress, _tokenId);\n            _updateAuctionEnd(_nftContractAddress, _tokenId);\n        }\n    }\n\n    function _updateAuctionEnd(address _nftContractAddress, uint256 _tokenId)\n        internal\n    {\n        //the auction end is always set to now + the bid period\n        nftContractAuctions[_nftContractAddress][_tokenId].auctionEnd =\n            _getAuctionBidPeriod(_nftContractAddress, _tokenId) +\n            uint64(block.timestamp);\n        emit AuctionPeriodUpdated(\n            _nftContractAddress,\n            _tokenId,\n            nftContractAuctions[_nftContractAddress][_tokenId].auctionEnd\n        );\n    }\n\n    /**********************************/\n    /*\n                   END              \n             UPDATE AUCTION         \n      */\n    /**********************************/\n\n    /*\n             RESET FUNCTIONS        \n      */\n\n    /*\n     * Reset all auction related parameters for an NFT.\n     * This effectively removes an EFT as an item up for auction\n     */\n    function _resetAuction(address _nftContractAddress, uint256 _tokenId)\n        internal\n    {\n        nftContractAuctions[_nftContractAddress][_tokenId].minPrice = 0;\n        nftContractAuctions[_nftContractAddress][_tokenId].buyNowPrice = 0;\n        nftContractAuctions[_nftContractAddress][_tokenId].auctionEnd = 0;\n        nftContractAuctions[_nftContractAddress][_tokenId].auctionBidPeriod = 0;\n        nftContractAuctions[_nftContractAddress][_tokenId]\n            .bidIncreasePercentage = 0;\n        nftContractAuctions[_nftContractAddress][_tokenId].nftSeller = address(\n            0\n        );\n        nftContractAuctions[_nftContractAddress][_tokenId]\n            .whitelistedBuyer = address(0);\n        nftContractAuctions[_nftContractAddress][_tokenId].ERC20Token = address(\n            0\n        );\n    }\n\n    /*\n     * Reset all bid related parameters for an NFT.\n     * This effectively sets an NFT as having no active bids\n     */\n    function _resetBids(address _nftContractAddress, uint256 _tokenId)\n        internal\n    {\n        nftContractAuctions[_nftContractAddress][_tokenId]\n            .nftHighestBidder = address(0);\n        nftContractAuctions[_nftContractAddress][_tokenId].nftHighestBid = 0;\n        nftContractAuctions[_nftContractAddress][_tokenId]\n            .nftRecipient = address(0);\n    }\n\n    /**********************************/\n    /*\n                   END              \n             RESET FUNCTIONS        \n      */\n    /**********************************/\n\n    /*\n               UPDATE BIDS          \n      */\n    /******************************************************************\n     * Internal functions that update bid parameters and reverse bids *\n     * to ensure contract only holds the highest bid.                 *\n     ******************************************************************/\n    function _updateHighestBid(\n        address _nftContractAddress,\n        uint256 _tokenId,\n        uint128 _tokenAmount\n    ) internal {\n        address auctionERC20Token = nftContractAuctions[_nftContractAddress][\n            _tokenId\n        ].ERC20Token;\n        if (_isERC20Auction(auctionERC20Token)) {\n            IERC20(auctionERC20Token).transferFrom(\n                msg.sender,\n                address(this),\n                _tokenAmount\n            );\n            nftContractAuctions[_nftContractAddress][_tokenId]\n                .nftHighestBid = _tokenAmount;\n        } \n        nftContractAuctions[_nftContractAddress][_tokenId]\n            .nftHighestBidder = msg.sender;\n    }\n\n    function _reverseAndResetPreviousBid(\n        address _nftContractAddress,\n        uint256 _tokenId\n    ) internal {\n        address nftHighestBidder = nftContractAuctions[_nftContractAddress][\n            _tokenId\n        ].nftHighestBidder;\n\n        uint128 nftHighestBid = nftContractAuctions[_nftContractAddress][\n            _tokenId\n        ].nftHighestBid;\n        _resetBids(_nftContractAddress, _tokenId);\n\n        _payout(_nftContractAddress, _tokenId, nftHighestBidder, nftHighestBid);\n    }\n\n    function _reversePreviousBidAndUpdateHighestBid(\n        address _nftContractAddress,\n        uint256 _tokenId,\n        uint128 _tokenAmount\n    ) internal {\n        address prevNftHighestBidder = nftContractAuctions[_nftContractAddress][\n            _tokenId\n        ].nftHighestBidder;\n\n        uint256 prevNftHighestBid = nftContractAuctions[_nftContractAddress][\n            _tokenId\n        ].nftHighestBid;\n        _updateHighestBid(_nftContractAddress, _tokenId, _tokenAmount);\n\n        if (prevNftHighestBidder != address(0)) {\n            _payout(\n                _nftContractAddress,\n                _tokenId,\n                prevNftHighestBidder,\n                prevNftHighestBid\n            );\n        }\n    }\n\n    /**********************************/\n    /*\n                   END              \n               UPDATE BIDS          \n      */\n    /**********************************/\n\n    /*\n        TRANSFER NFT & PAY SELLER   \n      */\n    function _transferNftAndPaySeller(\n        address _nftContractAddress,\n        uint256 _tokenId\n    ) internal {\n        address _nftSeller = nftContractAuctions[_nftContractAddress][_tokenId]\n            .nftSeller;\n        address _nftHighestBidder = nftContractAuctions[_nftContractAddress][\n            _tokenId\n        ].nftHighestBidder;\n        address _nftRecipient = _getNftRecipient(_nftContractAddress, _tokenId);\n        uint128 _nftHighestBid = nftContractAuctions[_nftContractAddress][\n            _tokenId\n        ].nftHighestBid;\n        _resetBids(_nftContractAddress, _tokenId);\n\n        _payFeesAndSeller(\n            _nftContractAddress,\n            _tokenId,\n            _nftSeller,\n            _nftHighestBid\n        );\n        IERC721(_nftContractAddress).transferFrom(\n            address(this),\n            _nftRecipient,\n            _tokenId\n        );\n\n        _resetAuction(_nftContractAddress, _tokenId);\n        emit NFTTransferredAndSellerPaid(\n            _nftContractAddress,\n            _tokenId,\n            _nftSeller,\n            _nftHighestBid,\n            _nftHighestBidder,\n            _nftRecipient\n        );\n    }\n\n    function _payFeesAndSeller(\n        address _nftContractAddress,\n        uint256 _tokenId,\n        address _nftSeller,\n        uint256 _highestBid\n    ) internal {\n        uint256 feesPaid;\n        for (\n            uint256 i = 0;\n            i <\n            nftContractAuctions[_nftContractAddress][_tokenId]\n                .feeRecipients\n                .length;\n            i++\n        ) {\n            uint256 fee = _getPortionOfBid(\n                _highestBid,\n                nftContractAuctions[_nftContractAddress][_tokenId]\n                    .feePercentages[i]\n            );\n            feesPaid = feesPaid + fee;\n            _payout(\n                _nftContractAddress,\n                _tokenId,\n                nftContractAuctions[_nftContractAddress][_tokenId]\n                    .feeRecipients[i],\n                fee\n            );\n        }\n        _payout(\n            _nftContractAddress,\n            _tokenId,\n            _nftSeller,\n            (_highestBid - feesPaid)\n        );\n    }\n\n    function _payout(\n        address _nftContractAddress,\n        uint256 _tokenId,\n        address _recipient,\n        uint256 _amount\n    ) internal {\n        address auctionERC20Token = nftContractAuctions[_nftContractAddress][\n            _tokenId\n        ].ERC20Token;\n        if (_isERC20Auction(auctionERC20Token)) {\n            IERC20(auctionERC20Token).transfer(_recipient, _amount);\n        } else {\n            // attempt to send the funds to the recipient\n            (bool success, ) = payable(_recipient).call{\n                value: _amount,\n                gas: 20000\n            }(\"\");\n            // if it failed, update their credit balance so they can pull it later\n            if (!success) {\n                failedTransferCredits[_recipient] =\n                    failedTransferCredits[_recipient] +\n                    _amount;\n            }\n        }\n    }\n\n    /**********************************/\n    /*\n                   END              \n        TRANSFER NFT & PAY SELLER   \n      */\n    /**********************************/\n\n    /*\n            SETTLE & WITHDRAW       \n      */\n    function settleAuction(address _nftContractAddress, uint256 _tokenId)\n        external\n        isAuctionOver(_nftContractAddress, _tokenId)\n    {\n        _transferNftAndPaySeller(_nftContractAddress, _tokenId);\n        emit AuctionSettled(_nftContractAddress, _tokenId, msg.sender);\n    }\n\n    function withdrawAuction(address _nftContractAddress, uint256 _tokenId)\n        external\n    {\n        //only the NFT owner can prematurely close and auction\n        require(\n            IERC721(_nftContractAddress).ownerOf(_tokenId) == msg.sender,\n            \"Not NFT owner\"\n        );\n        _resetAuction(_nftContractAddress, _tokenId);\n        emit AuctionWithdrawn(_nftContractAddress, _tokenId, msg.sender);\n    }\n\n    function withdrawBid(address _nftContractAddress, uint256 _tokenId)\n        external\n        minimumBidNotMade(_nftContractAddress, _tokenId)\n    {\n        address nftHighestBidder = nftContractAuctions[_nftContractAddress][\n            _tokenId\n        ].nftHighestBidder;\n        require(msg.sender == nftHighestBidder, \"Cannot withdraw funds\");\n\n        uint128 nftHighestBid = nftContractAuctions[_nftContractAddress][\n            _tokenId\n        ].nftHighestBid;\n        _resetBids(_nftContractAddress, _tokenId);\n\n        _payout(_nftContractAddress, _tokenId, nftHighestBidder, nftHighestBid);\n\n        emit BidWithdrawn(_nftContractAddress, _tokenId, msg.sender);\n    }\n\n    /**********************************/\n    /*\n                   END              \n            SETTLE & WITHDRAW       \n      */\n    /**********************************/\n\n    /*\n             UPDATE AUCTION         \n      */\n    function updateWhitelistedBuyer(\n        address _nftContractAddress,\n        uint256 _tokenId,\n        address _newWhitelistedBuyer\n    ) external onlyNftSeller(_nftContractAddress, _tokenId) {\n        require(_isASale(_nftContractAddress, _tokenId), \"Not a sale\");\n        nftContractAuctions[_nftContractAddress][_tokenId]\n            .whitelistedBuyer = _newWhitelistedBuyer;\n        //if an underbid is by a non whitelisted buyer,reverse that bid\n        address nftHighestBidder = nftContractAuctions[_nftContractAddress][\n            _tokenId\n        ].nftHighestBidder;\n        uint128 nftHighestBid = nftContractAuctions[_nftContractAddress][\n            _tokenId\n        ].nftHighestBid;\n        if (nftHighestBid > 0 && !(nftHighestBidder == _newWhitelistedBuyer)) {\n            //we only revert the underbid if the seller specifies a different\n            //whitelisted buyer to the highest bider\n\n            _resetBids(_nftContractAddress, _tokenId);\n\n            _payout(\n                _nftContractAddress,\n                _tokenId,\n                nftHighestBidder,\n                nftHighestBid\n            );\n        }\n\n        emit WhitelistedBuyerUpdated(\n            _nftContractAddress,\n            _tokenId,\n            _newWhitelistedBuyer\n        );\n    }\n\n    function updateMinimumPrice(\n        address _nftContractAddress,\n        uint256 _tokenId,\n        uint128 _newMinPrice\n    )\n        external\n        onlyNftSeller(_nftContractAddress, _tokenId)\n        minimumBidNotMade(_nftContractAddress, _tokenId)\n        isNotASale(_nftContractAddress, _tokenId)\n        priceGreaterThanZero(_newMinPrice)\n        minPriceDoesNotExceedLimit(\n            nftContractAuctions[_nftContractAddress][_tokenId].buyNowPrice,\n            _newMinPrice\n        )\n    {\n        nftContractAuctions[_nftContractAddress][_tokenId]\n            .minPrice = _newMinPrice;\n\n        emit MinimumPriceUpdated(_nftContractAddress, _tokenId, _newMinPrice);\n\n        if (_isMinimumBidMade(_nftContractAddress, _tokenId)) {\n            _transferNftToAuctionContract(_nftContractAddress, _tokenId);\n            _updateAuctionEnd(_nftContractAddress, _tokenId);\n        }\n    }\n\n    function updateBuyNowPrice(\n        address _nftContractAddress,\n        uint256 _tokenId,\n        uint128 _newBuyNowPrice\n    )\n        external\n        onlyNftSeller(_nftContractAddress, _tokenId)\n        priceGreaterThanZero(_newBuyNowPrice)\n        minPriceDoesNotExceedLimit(\n            _newBuyNowPrice,\n            nftContractAuctions[_nftContractAddress][_tokenId].minPrice\n        )\n    {\n        nftContractAuctions[_nftContractAddress][_tokenId]\n            .buyNowPrice = _newBuyNowPrice;\n        emit BuyNowPriceUpdated(_nftContractAddress, _tokenId, _newBuyNowPrice);\n        if (_isBuyNowPriceMet(_nftContractAddress, _tokenId)) {\n            _transferNftToAuctionContract(_nftContractAddress, _tokenId);\n            _transferNftAndPaySeller(_nftContractAddress, _tokenId);\n        }\n    }\n\n    /*\n     * The NFT seller can opt to end an auction by taking the current highest bid.\n     */\n    function takeHighestBid(address _nftContractAddress, uint256 _tokenId)\n        external\n        onlyNftSeller(_nftContractAddress, _tokenId)\n    {\n        require(\n            _isABidMade(_nftContractAddress, _tokenId),\n            \"cannot payout 0 bid\"\n        );\n        _transferNftToAuctionContract(_nftContractAddress, _tokenId);\n        _transferNftAndPaySeller(_nftContractAddress, _tokenId);\n        emit HighestBidTaken(_nftContractAddress, _tokenId);\n    }\n\n    /*\n     * Query the owner of an NFT deposited for auction\n     */\n    function ownerOfNFT(address _nftContractAddress, uint256 _tokenId)\n        external\n        view\n        returns (address)\n    {\n        address nftSeller = nftContractAuctions[_nftContractAddress][_tokenId]\n            .nftSeller;\n        require(nftSeller != address(0), \"NFT not deposited\");\n\n        return nftSeller;\n    }\n\n    /*\n     * If the transfer of a bid has failed, allow the recipient to reclaim their amount later.\n     */\n    function withdrawAllFailedCredits() external {\n        uint256 amount = failedTransferCredits[msg.sender];\n\n        require(amount != 0, \"no credits to withdraw\");\n\n        failedTransferCredits[msg.sender] = 0;\n\n        (bool successfulWithdraw, ) = msg.sender.call{\n            value: amount,\n            gas: 20000\n        }(\"\");\n        require(successfulWithdraw, \"withdraw failed\");\n    }\n\n    /**********************************/\n    /*\n                   END              \n             UPDATE AUCTION         \n      */\n    /**********************************/\n}\n",
  "sourcePath": "/home/hp/Documents/Kryptomind/my projects/smartBond/contracts/auction.sol",
  "compiler": {
    "name": "solc",
    "version": "0.8.11+commit.d7f03943.Emscripten.clang"
  },
  "schemaVersion": "3.4.8",
  "updatedAt": "2022-07-25T11:11:14.016Z",
  "devdoc": {
    "author": "Avo Labs GmbH",
    "kind": "dev",
    "methods": {},
    "title": "An Auction Contract for bidding and selling single and batched NFTs",
    "version": 1
  },
  "userdoc": {
    "kind": "user",
    "methods": {
      "createDefaultNftAuction(address,uint256,address,uint128,uint128,address[],uint32[])": {
        "notice": "Create an auction that uses the default bid increase percentage & the default auction bid period."
      }
    },
    "notice": "This contract can be used for auctioning any NFTs, and accepts any ERC20 token as payment",
    "version": 1
  }
}