{
  "contractName": "SmartBond",
  "abi": [
    {
      "inputs": [],
      "stateMutability": "nonpayable",
      "type": "constructor"
    },
    {
      "anonymous": false,
      "inputs": [
        {
          "indexed": true,
          "internalType": "address",
          "name": "owner",
          "type": "address"
        },
        {
          "indexed": true,
          "internalType": "address",
          "name": "approved",
          "type": "address"
        },
        {
          "indexed": true,
          "internalType": "uint256",
          "name": "tokenId",
          "type": "uint256"
        }
      ],
      "name": "Approval",
      "type": "event"
    },
    {
      "anonymous": false,
      "inputs": [
        {
          "indexed": true,
          "internalType": "address",
          "name": "owner",
          "type": "address"
        },
        {
          "indexed": true,
          "internalType": "address",
          "name": "operator",
          "type": "address"
        },
        {
          "indexed": false,
          "internalType": "bool",
          "name": "approved",
          "type": "bool"
        }
      ],
      "name": "ApprovalForAll",
      "type": "event"
    },
    {
      "anonymous": false,
      "inputs": [
        {
          "indexed": true,
          "internalType": "bytes32",
          "name": "role",
          "type": "bytes32"
        },
        {
          "indexed": true,
          "internalType": "bytes32",
          "name": "previousAdminRole",
          "type": "bytes32"
        },
        {
          "indexed": true,
          "internalType": "bytes32",
          "name": "newAdminRole",
          "type": "bytes32"
        }
      ],
      "name": "RoleAdminChanged",
      "type": "event"
    },
    {
      "anonymous": false,
      "inputs": [
        {
          "indexed": true,
          "internalType": "bytes32",
          "name": "role",
          "type": "bytes32"
        },
        {
          "indexed": true,
          "internalType": "address",
          "name": "account",
          "type": "address"
        },
        {
          "indexed": true,
          "internalType": "address",
          "name": "sender",
          "type": "address"
        }
      ],
      "name": "RoleGranted",
      "type": "event"
    },
    {
      "anonymous": false,
      "inputs": [
        {
          "indexed": true,
          "internalType": "bytes32",
          "name": "role",
          "type": "bytes32"
        },
        {
          "indexed": true,
          "internalType": "address",
          "name": "account",
          "type": "address"
        },
        {
          "indexed": true,
          "internalType": "address",
          "name": "sender",
          "type": "address"
        }
      ],
      "name": "RoleRevoked",
      "type": "event"
    },
    {
      "anonymous": false,
      "inputs": [
        {
          "indexed": true,
          "internalType": "address",
          "name": "from",
          "type": "address"
        },
        {
          "indexed": true,
          "internalType": "address",
          "name": "to",
          "type": "address"
        },
        {
          "indexed": true,
          "internalType": "uint256",
          "name": "tokenId",
          "type": "uint256"
        }
      ],
      "name": "Transfer",
      "type": "event"
    },
    {
      "inputs": [],
      "name": "DEFAULT_ADMIN_ROLE",
      "outputs": [
        {
          "internalType": "bytes32",
          "name": "",
          "type": "bytes32"
        }
      ],
      "stateMutability": "view",
      "type": "function"
    },
    {
      "inputs": [],
      "name": "MINTER_ROLE",
      "outputs": [
        {
          "internalType": "bytes32",
          "name": "",
          "type": "bytes32"
        }
      ],
      "stateMutability": "view",
      "type": "function"
    },
    {
      "inputs": [
        {
          "internalType": "address",
          "name": "to",
          "type": "address"
        },
        {
          "internalType": "uint256",
          "name": "tokenId",
          "type": "uint256"
        }
      ],
      "name": "approve",
      "outputs": [],
      "stateMutability": "nonpayable",
      "type": "function"
    },
    {
      "inputs": [
        {
          "internalType": "address",
          "name": "owner",
          "type": "address"
        }
      ],
      "name": "balanceOf",
      "outputs": [
        {
          "internalType": "uint256",
          "name": "",
          "type": "uint256"
        }
      ],
      "stateMutability": "view",
      "type": "function"
    },
    {
      "inputs": [
        {
          "internalType": "uint256",
          "name": "tokenId",
          "type": "uint256"
        }
      ],
      "name": "getApproved",
      "outputs": [
        {
          "internalType": "address",
          "name": "",
          "type": "address"
        }
      ],
      "stateMutability": "view",
      "type": "function"
    },
    {
      "inputs": [
        {
          "internalType": "bytes32",
          "name": "role",
          "type": "bytes32"
        }
      ],
      "name": "getRoleAdmin",
      "outputs": [
        {
          "internalType": "bytes32",
          "name": "",
          "type": "bytes32"
        }
      ],
      "stateMutability": "view",
      "type": "function"
    },
    {
      "inputs": [
        {
          "internalType": "bytes32",
          "name": "role",
          "type": "bytes32"
        },
        {
          "internalType": "address",
          "name": "account",
          "type": "address"
        }
      ],
      "name": "grantRole",
      "outputs": [],
      "stateMutability": "nonpayable",
      "type": "function"
    },
    {
      "inputs": [
        {
          "internalType": "bytes32",
          "name": "role",
          "type": "bytes32"
        },
        {
          "internalType": "address",
          "name": "account",
          "type": "address"
        }
      ],
      "name": "hasRole",
      "outputs": [
        {
          "internalType": "bool",
          "name": "",
          "type": "bool"
        }
      ],
      "stateMutability": "view",
      "type": "function"
    },
    {
      "inputs": [
        {
          "internalType": "address",
          "name": "owner",
          "type": "address"
        },
        {
          "internalType": "address",
          "name": "operator",
          "type": "address"
        }
      ],
      "name": "isApprovedForAll",
      "outputs": [
        {
          "internalType": "bool",
          "name": "",
          "type": "bool"
        }
      ],
      "stateMutability": "view",
      "type": "function"
    },
    {
      "inputs": [],
      "name": "name",
      "outputs": [
        {
          "internalType": "string",
          "name": "",
          "type": "string"
        }
      ],
      "stateMutability": "view",
      "type": "function"
    },
    {
      "inputs": [
        {
          "internalType": "uint256",
          "name": "tokenId",
          "type": "uint256"
        }
      ],
      "name": "ownerOf",
      "outputs": [
        {
          "internalType": "address",
          "name": "",
          "type": "address"
        }
      ],
      "stateMutability": "view",
      "type": "function"
    },
    {
      "inputs": [
        {
          "internalType": "bytes32",
          "name": "role",
          "type": "bytes32"
        },
        {
          "internalType": "address",
          "name": "account",
          "type": "address"
        }
      ],
      "name": "renounceRole",
      "outputs": [],
      "stateMutability": "nonpayable",
      "type": "function"
    },
    {
      "inputs": [
        {
          "internalType": "bytes32",
          "name": "role",
          "type": "bytes32"
        },
        {
          "internalType": "address",
          "name": "account",
          "type": "address"
        }
      ],
      "name": "revokeRole",
      "outputs": [],
      "stateMutability": "nonpayable",
      "type": "function"
    },
    {
      "inputs": [
        {
          "internalType": "address",
          "name": "from",
          "type": "address"
        },
        {
          "internalType": "address",
          "name": "to",
          "type": "address"
        },
        {
          "internalType": "uint256",
          "name": "tokenId",
          "type": "uint256"
        }
      ],
      "name": "safeTransferFrom",
      "outputs": [],
      "stateMutability": "nonpayable",
      "type": "function"
    },
    {
      "inputs": [
        {
          "internalType": "address",
          "name": "from",
          "type": "address"
        },
        {
          "internalType": "address",
          "name": "to",
          "type": "address"
        },
        {
          "internalType": "uint256",
          "name": "tokenId",
          "type": "uint256"
        },
        {
          "internalType": "bytes",
          "name": "_data",
          "type": "bytes"
        }
      ],
      "name": "safeTransferFrom",
      "outputs": [],
      "stateMutability": "nonpayable",
      "type": "function"
    },
    {
      "inputs": [
        {
          "internalType": "address",
          "name": "operator",
          "type": "address"
        },
        {
          "internalType": "bool",
          "name": "approved",
          "type": "bool"
        }
      ],
      "name": "setApprovalForAll",
      "outputs": [],
      "stateMutability": "nonpayable",
      "type": "function"
    },
    {
      "inputs": [],
      "name": "symbol",
      "outputs": [
        {
          "internalType": "string",
          "name": "",
          "type": "string"
        }
      ],
      "stateMutability": "view",
      "type": "function"
    },
    {
      "inputs": [
        {
          "internalType": "uint256",
          "name": "index",
          "type": "uint256"
        }
      ],
      "name": "tokenByIndex",
      "outputs": [
        {
          "internalType": "uint256",
          "name": "",
          "type": "uint256"
        }
      ],
      "stateMutability": "view",
      "type": "function"
    },
    {
      "inputs": [
        {
          "internalType": "address",
          "name": "owner",
          "type": "address"
        },
        {
          "internalType": "uint256",
          "name": "index",
          "type": "uint256"
        }
      ],
      "name": "tokenOfOwnerByIndex",
      "outputs": [
        {
          "internalType": "uint256",
          "name": "",
          "type": "uint256"
        }
      ],
      "stateMutability": "view",
      "type": "function"
    },
    {
      "inputs": [
        {
          "internalType": "uint256",
          "name": "tokenId",
          "type": "uint256"
        }
      ],
      "name": "tokenURI",
      "outputs": [
        {
          "internalType": "string",
          "name": "",
          "type": "string"
        }
      ],
      "stateMutability": "view",
      "type": "function"
    },
    {
      "inputs": [],
      "name": "totalSupply",
      "outputs": [
        {
          "internalType": "uint256",
          "name": "",
          "type": "uint256"
        }
      ],
      "stateMutability": "view",
      "type": "function"
    },
    {
      "inputs": [
        {
          "internalType": "address",
          "name": "from",
          "type": "address"
        },
        {
          "internalType": "address",
          "name": "to",
          "type": "address"
        },
        {
          "internalType": "uint256",
          "name": "tokenId",
          "type": "uint256"
        }
      ],
      "name": "transferFrom",
      "outputs": [],
      "stateMutability": "nonpayable",
      "type": "function"
    },
    {
      "inputs": [
        {
          "internalType": "address",
          "name": "to",
          "type": "address"
        },
        {
          "internalType": "uint256",
          "name": "tokenId",
          "type": "uint256"
        }
      ],
      "name": "safeMint",
      "outputs": [],
      "stateMutability": "nonpayable",
      "type": "function"
    },
    {
      "inputs": [
        {
          "internalType": "address",
          "name": "to",
          "type": "address"
        },
        {
          "internalType": "uint256",
          "name": "fromTokenId",
          "type": "uint256"
        },
        {
          "internalType": "uint256",
          "name": "toTokenId",
          "type": "uint256"
        }
      ],
      "name": "safeMintBatch",
      "outputs": [],
      "stateMutability": "nonpayable",
      "type": "function"
    },
    {
      "inputs": [
        {
          "internalType": "address",
          "name": "owner",
          "type": "address"
        }
      ],
      "name": "tokensOfOwner",
      "outputs": [
        {
          "internalType": "uint256[]",
          "name": "",
          "type": "uint256[]"
        }
      ],
      "stateMutability": "view",
      "type": "function"
    },
    {
      "inputs": [
        {
          "internalType": "bytes4",
          "name": "interfaceId",
          "type": "bytes4"
        }
      ],
      "name": "supportsInterface",
      "outputs": [
        {
          "internalType": "bool",
          "name": "",
          "type": "bool"
        }
      ],
      "stateMutability": "view",
      "type": "function"
    }
  ],
  "bytecode": "0x60806040523480156200001157600080fd5b50604080518082018252601081526f29b6b0b93a102137b732102a37b5b2b760811b60208083019182528351808501909452600384526214d09560ea1b908401528151919291620000659160009162000164565b5080516200007b90600190602084019062000164565b506200008d91506000905033620000bf565b620000b97f9f2df0fed2c77648de5860a4cc508cd0818c85b8b8a1ab4ceeef8d981c8956a633620000bf565b62000247565b6000828152600a602090815260408083206001600160a01b038516845290915290205460ff1662000160576000828152600a602090815260408083206001600160a01b03851684529091529020805460ff191660011790556200011f3390565b6001600160a01b0316816001600160a01b0316837f2f8788117e7eff1d82e926ec794901d17c78024a50270940304540a733656f0d60405160405180910390a45b5050565b82805462000172906200020a565b90600052602060002090601f016020900481019282620001965760008555620001e1565b82601f10620001b157805160ff1916838001178555620001e1565b82800160010185558215620001e1579182015b82811115620001e1578251825591602001919060010190620001c4565b50620001ef929150620001f3565b5090565b5b80821115620001ef5760008155600101620001f4565b600181811c908216806200021f57607f821691505b602082108114156200024157634e487b7160e01b600052602260045260246000fd5b50919050565b61205280620002576000396000f3fe608060405234801561001057600080fd5b506004361061018e5760003560e01c80636352211e116100de578063a217fddf11610097578063c87b56dd11610071578063c87b56dd1461036c578063d53913931461037f578063d547741f146103a6578063e985e9c5146103b957600080fd5b8063a217fddf1461033e578063a22cb46514610346578063b88d4fde1461035957600080fd5b80636352211e146102ca57806370a08231146102dd5780638462151c146102f057806391d148541461031057806395d89b4114610323578063a14481941461032b57600080fd5b8063248a9ca31161014b57806336568abe1161012557806336568abe1461027e57806342842e0e146102915780634f6ccce7146102a457806361587911146102b757600080fd5b8063248a9ca3146102355780632f2ff15d146102585780632f745c591461026b57600080fd5b806301ffc9a71461019357806306fdde03146101bb578063081812fc146101d0578063095ea7b3146101fb57806318160ddd1461021057806323b872dd14610222575b600080fd5b6101a66101a1366004611a07565b6103f5565b60405190151581526020015b60405180910390f35b6101c3610406565b6040516101b29190611a7c565b6101e36101de366004611a8f565b610498565b6040516001600160a01b0390911681526020016101b2565b61020e610209366004611ac4565b610532565b005b6008545b6040519081526020016101b2565b61020e610230366004611aee565b610648565b610214610243366004611a8f565b6000908152600a602052604090206001015490565b61020e610266366004611b2a565b610679565b610214610279366004611ac4565b61069e565b61020e61028c366004611b2a565b610734565b61020e61029f366004611aee565b6107b2565b6102146102b2366004611a8f565b6107cd565b61020e6102c5366004611b56565b610860565b6101e36102d8366004611a8f565b6108b6565b6102146102eb366004611b89565b61092d565b6103036102fe366004611b89565b6109b4565b6040516101b29190611ba4565b6101a661031e366004611b2a565b610aa7565b6101c3610ad2565b61020e610339366004611ac4565b610ae1565b610214600081565b61020e610354366004611be8565b610b15565b61020e610367366004611c3a565b610b20565b6101c361037a366004611a8f565b610b58565b6102147f9f2df0fed2c77648de5860a4cc508cd0818c85b8b8a1ab4ceeef8d981c8956a681565b61020e6103b4366004611b2a565b610c40565b6101a66103c7366004611d16565b6001600160a01b03918216600090815260056020908152604080832093909416825291909152205460ff1690565b600061040082610c65565b92915050565b60606000805461041590611d40565b80601f016020809104026020016040519081016040528092919081815260200182805461044190611d40565b801561048e5780601f106104635761010080835404028352916020019161048e565b820191906000526020600020905b81548152906001019060200180831161047157829003601f168201915b5050505050905090565b6000818152600260205260408120546001600160a01b03166105165760405162461bcd60e51b815260206004820152602c60248201527f4552433732313a20617070726f76656420717565727920666f72206e6f6e657860448201526b34b9ba32b73a103a37b5b2b760a11b60648201526084015b60405180910390fd5b506000908152600460205260409020546001600160a01b031690565b600061053d826108b6565b9050806001600160a01b0316836001600160a01b031614156105ab5760405162461bcd60e51b815260206004820152602160248201527f4552433732313a20617070726f76616c20746f2063757272656e74206f776e656044820152603960f91b606482015260840161050d565b336001600160a01b03821614806105c757506105c781336103c7565b6106395760405162461bcd60e51b815260206004820152603860248201527f4552433732313a20617070726f76652063616c6c6572206973206e6f74206f7760448201527f6e6572206e6f7220617070726f76656420666f7220616c6c0000000000000000606482015260840161050d565b6106438383610c8a565b505050565b6106523382610cf8565b61066e5760405162461bcd60e51b815260040161050d90611d7b565b610643838383610def565b6000828152600a602052604090206001015461069481610f96565b6106438383610fa3565b60006106a98361092d565b821061070b5760405162461bcd60e51b815260206004820152602b60248201527f455243373231456e756d657261626c653a206f776e657220696e646578206f7560448201526a74206f6620626f756e647360a81b606482015260840161050d565b506001600160a01b03919091166000908152600660209081526040808320938352929052205490565b6001600160a01b03811633146107a45760405162461bcd60e51b815260206004820152602f60248201527f416363657373436f6e74726f6c3a2063616e206f6e6c792072656e6f756e636560448201526e103937b632b9903337b91039b2b63360891b606482015260840161050d565b6107ae8282611029565b5050565b61064383838360405180602001604052806000815250610b20565b60006107d860085490565b821061083b5760405162461bcd60e51b815260206004820152602c60248201527f455243373231456e756d657261626c653a20676c6f62616c20696e646578206f60448201526b7574206f6620626f756e647360a01b606482015260840161050d565b6008828154811061084e5761084e611dcc565b90600052602060002001549050919050565b7f9f2df0fed2c77648de5860a4cc508cd0818c85b8b8a1ab4ceeef8d981c8956a661088a81610f96565b825b8281116108af5761089d8582611090565b806108a781611df8565b91505061088c565b5050505050565b6000818152600260205260408120546001600160a01b0316806104005760405162461bcd60e51b815260206004820152602960248201527f4552433732313a206f776e657220717565727920666f72206e6f6e657869737460448201526832b73a103a37b5b2b760b91b606482015260840161050d565b60006001600160a01b0382166109985760405162461bcd60e51b815260206004820152602a60248201527f4552433732313a2062616c616e636520717565727920666f7220746865207a65604482015269726f206164647265737360b01b606482015260840161050d565b506001600160a01b031660009081526003602052604090205490565b60606109bf8261092d565b600010610a075760405162461bcd60e51b815260206004820152601660248201527522a9219b9918a2b73ab69d1037bbb732b91034b7b7b160511b604482015260640161050d565b6000610a128361092d565b905060008167ffffffffffffffff811115610a2f57610a2f611c24565b604051908082528060200260200182016040528015610a58578160200160208202803683370190505b50905060005b82811015610a9f57610a70858261069e565b828281518110610a8257610a82611dcc565b602090810291909101015280610a9781611df8565b915050610a5e565b509392505050565b6000918252600a602090815260408084206001600160a01b0393909316845291905290205460ff1690565b60606001805461041590611d40565b7f9f2df0fed2c77648de5860a4cc508cd0818c85b8b8a1ab4ceeef8d981c8956a6610b0b81610f96565b6106438383611090565b6107ae3383836110aa565b610b2a3383610cf8565b610b465760405162461bcd60e51b815260040161050d90611d7b565b610b5284848484611179565b50505050565b6000818152600260205260409020546060906001600160a01b0316610bd75760405162461bcd60e51b815260206004820152602f60248201527f4552433732314d657461646174613a2055524920717565727920666f72206e6f60448201526e3732bc34b9ba32b73a103a37b5b2b760891b606482015260840161050d565b6000610bee60408051602081019091526000815290565b90506000815111610c0e5760405180602001604052806000815250610c39565b80610c18846111ac565b604051602001610c29929190611e13565b6040516020818303038152906040525b9392505050565b6000828152600a6020526040902060010154610c5b81610f96565b6106438383611029565b60006001600160e01b03198216637965db0b60e01b14806104005750610400826112aa565b600081815260046020526040902080546001600160a01b0319166001600160a01b0384169081179091558190610cbf826108b6565b6001600160a01b03167f8c5be1e5ebec7d5bd14f71427d1e84f3dd0314c0f7b2291e5b200ac8c7c3b92560405160405180910390a45050565b6000818152600260205260408120546001600160a01b0316610d715760405162461bcd60e51b815260206004820152602c60248201527f4552433732313a206f70657261746f7220717565727920666f72206e6f6e657860448201526b34b9ba32b73a103a37b5b2b760a11b606482015260840161050d565b6000610d7c836108b6565b9050806001600160a01b0316846001600160a01b03161480610dc357506001600160a01b0380821660009081526005602090815260408083209388168352929052205460ff165b80610de75750836001600160a01b0316610ddc84610498565b6001600160a01b0316145b949350505050565b826001600160a01b0316610e02826108b6565b6001600160a01b031614610e665760405162461bcd60e51b815260206004820152602560248201527f4552433732313a207472616e736665722066726f6d20696e636f72726563742060448201526437bbb732b960d91b606482015260840161050d565b6001600160a01b038216610ec85760405162461bcd60e51b8152602060048201526024808201527f4552433732313a207472616e7366657220746f20746865207a65726f206164646044820152637265737360e01b606482015260840161050d565b610ed38383836112cf565b610ede600082610c8a565b6001600160a01b0383166000908152600360205260408120805460019290610f07908490611e42565b90915550506001600160a01b0382166000908152600360205260408120805460019290610f35908490611e59565b909155505060008181526002602052604080822080546001600160a01b0319166001600160a01b0386811691821790925591518493918716917fddf252ad1be2c89b69c2b068fc378daa952ba7f163c4a11628f55a4df523b3ef91a4505050565b610fa081336112da565b50565b610fad8282610aa7565b6107ae576000828152600a602090815260408083206001600160a01b03851684529091529020805460ff19166001179055610fe53390565b6001600160a01b0316816001600160a01b0316837f2f8788117e7eff1d82e926ec794901d17c78024a50270940304540a733656f0d60405160405180910390a45050565b6110338282610aa7565b156107ae576000828152600a602090815260408083206001600160a01b0385168085529252808320805460ff1916905551339285917ff6391f5c32d9c69d2a47ea670b442974b53935d1edc7fd64eb21e047a839171b9190a45050565b6107ae82826040518060200160405280600081525061133e565b816001600160a01b0316836001600160a01b0316141561110c5760405162461bcd60e51b815260206004820152601960248201527f4552433732313a20617070726f766520746f2063616c6c657200000000000000604482015260640161050d565b6001600160a01b03838116600081815260056020908152604080832094871680845294825291829020805460ff191686151590811790915591519182527f17307eab39ab6107e8899845ad3d59bd9653f200f220920489ca2b5937696c31910160405180910390a3505050565b611184848484610def565b61119084848484611371565b610b525760405162461bcd60e51b815260040161050d90611e71565b6060816111d05750506040805180820190915260018152600360fc1b602082015290565b8160005b81156111fa57806111e481611df8565b91506111f39050600a83611ed9565b91506111d4565b60008167ffffffffffffffff81111561121557611215611c24565b6040519080825280601f01601f19166020018201604052801561123f576020820181803683370190505b5090505b8415610de757611254600183611e42565b9150611261600a86611eed565b61126c906030611e59565b60f81b81838151811061128157611281611dcc565b60200101906001600160f81b031916908160001a9053506112a3600a86611ed9565b9450611243565b60006001600160e01b0319821663780e9d6360e01b148061040057506104008261146f565b6106438383836114bf565b6112e48282610aa7565b6107ae576112fc816001600160a01b03166014611577565b611307836020611577565b604051602001611318929190611f01565b60408051601f198184030181529082905262461bcd60e51b825261050d91600401611a7c565b6113488383611713565b6113556000848484611371565b6106435760405162461bcd60e51b815260040161050d90611e71565b60006001600160a01b0384163b1561146457604051630a85bd0160e11b81526001600160a01b0385169063150b7a02906113b5903390899088908890600401611f76565b6020604051808303816000875af19250505080156113f0575060408051601f3d908101601f191682019092526113ed91810190611fb3565b60015b61144a573d80801561141e576040519150601f19603f3d011682016040523d82523d6000602084013e611423565b606091505b5080516114425760405162461bcd60e51b815260040161050d90611e71565b805181602001fd5b6001600160e01b031916630a85bd0160e11b149050610de7565b506001949350505050565b60006001600160e01b031982166380ac58cd60e01b14806114a057506001600160e01b03198216635b5e139f60e01b145b8061040057506301ffc9a760e01b6001600160e01b0319831614610400565b6001600160a01b03831661151a5761151581600880546000838152600960205260408120829055600182018355919091527ff3f7a9fe364faab93b216da50a3214154f22a0a2b415b23a84c8169e8b636ee30155565b61153d565b816001600160a01b0316836001600160a01b03161461153d5761153d8382611861565b6001600160a01b03821661155457610643816118fe565b826001600160a01b0316826001600160a01b0316146106435761064382826119ad565b60606000611586836002611fd0565b611591906002611e59565b67ffffffffffffffff8111156115a9576115a9611c24565b6040519080825280601f01601f1916602001820160405280156115d3576020820181803683370190505b509050600360fc1b816000815181106115ee576115ee611dcc565b60200101906001600160f81b031916908160001a905350600f60fb1b8160018151811061161d5761161d611dcc565b60200101906001600160f81b031916908160001a9053506000611641846002611fd0565b61164c906001611e59565b90505b60018111156116c4576f181899199a1a9b1b9c1cb0b131b232b360811b85600f166010811061168057611680611dcc565b1a60f81b82828151811061169657611696611dcc565b60200101906001600160f81b031916908160001a90535060049490941c936116bd81611fef565b905061164f565b508315610c395760405162461bcd60e51b815260206004820181905260248201527f537472696e67733a20686578206c656e67746820696e73756666696369656e74604482015260640161050d565b6001600160a01b0382166117695760405162461bcd60e51b815260206004820181905260248201527f4552433732313a206d696e7420746f20746865207a65726f2061646472657373604482015260640161050d565b6000818152600260205260409020546001600160a01b0316156117ce5760405162461bcd60e51b815260206004820152601c60248201527f4552433732313a20746f6b656e20616c7265616479206d696e74656400000000604482015260640161050d565b6117da600083836112cf565b6001600160a01b0382166000908152600360205260408120805460019290611803908490611e59565b909155505060008181526002602052604080822080546001600160a01b0319166001600160a01b03861690811790915590518392907fddf252ad1be2c89b69c2b068fc378daa952ba7f163c4a11628f55a4df523b3ef908290a45050565b6000600161186e8461092d565b6118789190611e42565b6000838152600760205260409020549091508082146118cb576001600160a01b03841660009081526006602090815260408083208584528252808320548484528184208190558352600790915290208190555b5060009182526007602090815260408084208490556001600160a01b039094168352600681528383209183525290812055565b60085460009061191090600190611e42565b6000838152600960205260408120546008805493945090928490811061193857611938611dcc565b90600052602060002001549050806008838154811061195957611959611dcc565b600091825260208083209091019290925582815260099091526040808220849055858252812055600880548061199157611991612006565b6001900381819060005260206000200160009055905550505050565b60006119b88361092d565b6001600160a01b039093166000908152600660209081526040808320868452825280832085905593825260079052919091209190915550565b6001600160e01b031981168114610fa057600080fd5b600060208284031215611a1957600080fd5b8135610c39816119f1565b60005b83811015611a3f578181015183820152602001611a27565b83811115610b525750506000910152565b60008151808452611a68816020860160208601611a24565b601f01601f19169290920160200192915050565b602081526000610c396020830184611a50565b600060208284031215611aa157600080fd5b5035919050565b80356001600160a01b0381168114611abf57600080fd5b919050565b60008060408385031215611ad757600080fd5b611ae083611aa8565b946020939093013593505050565b600080600060608486031215611b0357600080fd5b611b0c84611aa8565b9250611b1a60208501611aa8565b9150604084013590509250925092565b60008060408385031215611b3d57600080fd5b82359150611b4d60208401611aa8565b90509250929050565b600080600060608486031215611b6b57600080fd5b611b7484611aa8565b95602085013595506040909401359392505050565b600060208284031215611b9b57600080fd5b610c3982611aa8565b6020808252825182820181905260009190848201906040850190845b81811015611bdc57835183529284019291840191600101611bc0565b50909695505050505050565b60008060408385031215611bfb57600080fd5b611c0483611aa8565b915060208301358015158114611c1957600080fd5b809150509250929050565b634e487b7160e01b600052604160045260246000fd5b60008060008060808587031215611c5057600080fd5b611c5985611aa8565b9350611c6760208601611aa8565b925060408501359150606085013567ffffffffffffffff80821115611c8b57600080fd5b818701915087601f830112611c9f57600080fd5b813581811115611cb157611cb1611c24565b604051601f8201601f19908116603f01168101908382118183101715611cd957611cd9611c24565b816040528281528a6020848701011115611cf257600080fd5b82602086016020830137600060208483010152809550505050505092959194509250565b60008060408385031215611d2957600080fd5b611d3283611aa8565b9150611b4d60208401611aa8565b600181811c90821680611d5457607f821691505b60208210811415611d7557634e487b7160e01b600052602260045260246000fd5b50919050565b60208082526031908201527f4552433732313a207472616e736665722063616c6c6572206973206e6f74206f6040820152701ddb995c881b9bdc88185c1c1c9bdd9959607a1b606082015260800190565b634e487b7160e01b600052603260045260246000fd5b634e487b7160e01b600052601160045260246000fd5b6000600019821415611e0c57611e0c611de2565b5060010190565b60008351611e25818460208801611a24565b835190830190611e39818360208801611a24565b01949350505050565b600082821015611e5457611e54611de2565b500390565b60008219821115611e6c57611e6c611de2565b500190565b60208082526032908201527f4552433732313a207472616e7366657220746f206e6f6e20455243373231526560408201527131b2b4bb32b91034b6b83632b6b2b73a32b960711b606082015260800190565b634e487b7160e01b600052601260045260246000fd5b600082611ee857611ee8611ec3565b500490565b600082611efc57611efc611ec3565b500690565b7f416363657373436f6e74726f6c3a206163636f756e7420000000000000000000815260008351611f39816017850160208801611a24565b7001034b99036b4b9b9b4b733903937b6329607d1b6017918401918201528351611f6a816028840160208801611a24565b01602801949350505050565b6001600160a01b0385811682528416602082015260408101839052608060608201819052600090611fa990830184611a50565b9695505050505050565b600060208284031215611fc557600080fd5b8151610c39816119f1565b6000816000190483118215151615611fea57611fea611de2565b500290565b600081611ffe57611ffe611de2565b506000190190565b634e487b7160e01b600052603160045260246000fdfea26469706673582212207a82537a9146dcca49da8d4aa8e124a4d8cba1572ad2571f1b9e5545445e7f9464736f6c634300080b0033",
  "immutableReferences": {},
  "source": "// SPDX-License-Identifier: MIT\npragma solidity ^0.8.0;\n\nimport \"openzeppelin-solidity/contracts/token/ERC721/ERC721.sol\";\nimport \"openzeppelin-solidity/contracts/token/ERC721/extensions/ERC721Enumerable.sol\";\nimport \"openzeppelin-solidity/contracts/access/AccessControl.sol\";\n\ncontract SmartBond is ERC721, ERC721Enumerable, AccessControl {\n        \n    bytes32 public constant MINTER_ROLE = keccak256(\"MINTER_ROLE\");\n    \n    constructor() ERC721(\"Smart Bond Token\", \"SBT\") {\n        _grantRole(DEFAULT_ADMIN_ROLE, msg.sender);\n        _grantRole(MINTER_ROLE, msg.sender);\n    }\n\n    function safeMint(address to, uint256 tokenId) public onlyRole(MINTER_ROLE) {\n        _safeMint(to, tokenId);\n    }\n    \n    function safeMintBatch(address to, uint256 fromTokenId, uint256 toTokenId) public onlyRole(MINTER_ROLE) {\n        for (uint256 i = fromTokenId; i <= toTokenId; i++) {\n            _safeMint(to, i);\n        }\n    }\n\n    function tokensOfOwner(address owner) public view returns (uint256[] memory) {\n        require(0 < balanceOf(owner), \"ERC721Enum: owner ioob\");\n        uint256 tokenCount = balanceOf(owner);\n        uint256[] memory tokenIds = new uint256[](tokenCount);\n        for (uint256 i = 0; i < tokenCount; i++) {\n            tokenIds[i] = tokenOfOwnerByIndex(owner, i);\n        }\n        return tokenIds;\n    }\n\n    // The following functions are overrides required by Solidity.\n\n    function _beforeTokenTransfer(address from, address to, uint256 tokenId)\n        internal\n        override(ERC721, ERC721Enumerable) {\n        super._beforeTokenTransfer(from, to, tokenId);\n    }\n\n    function supportsInterface(bytes4 interfaceId)\n        public\n        view\n        override(ERC721, ERC721Enumerable, AccessControl)\n        returns (bool) {\n        return super.supportsInterface(interfaceId);\n    }\n}\n",
  "sourcePath": "/home/hp/Documents/Kryptomind/my projects/smartBond/contracts/smartBondNFT.sol",
  "compiler": {
    "name": "solc",
    "version": "0.8.11+commit.d7f03943.Emscripten.clang"
  },
  "schemaVersion": "3.4.8",
  "updatedAt": "2022-07-25T11:11:14.069Z",
  "devdoc": {
    "kind": "dev",
    "methods": {
      "approve(address,uint256)": {
        "details": "See {IERC721-approve}."
      },
      "balanceOf(address)": {
        "details": "See {IERC721-balanceOf}."
      },
      "getApproved(uint256)": {
        "details": "See {IERC721-getApproved}."
      },
      "getRoleAdmin(bytes32)": {
        "details": "Returns the admin role that controls `role`. See {grantRole} and {revokeRole}. To change a role's admin, use {_setRoleAdmin}."
      },
      "grantRole(bytes32,address)": {
        "details": "Grants `role` to `account`. If `account` had not been already granted `role`, emits a {RoleGranted} event. Requirements: - the caller must have ``role``'s admin role."
      },
      "hasRole(bytes32,address)": {
        "details": "Returns `true` if `account` has been granted `role`."
      },
      "isApprovedForAll(address,address)": {
        "details": "See {IERC721-isApprovedForAll}."
      },
      "name()": {
        "details": "See {IERC721Metadata-name}."
      },
      "ownerOf(uint256)": {
        "details": "See {IERC721-ownerOf}."
      },
      "renounceRole(bytes32,address)": {
        "details": "Revokes `role` from the calling account. Roles are often managed via {grantRole} and {revokeRole}: this function's purpose is to provide a mechanism for accounts to lose their privileges if they are compromised (such as when a trusted device is misplaced). If the calling account had been revoked `role`, emits a {RoleRevoked} event. Requirements: - the caller must be `account`."
      },
      "revokeRole(bytes32,address)": {
        "details": "Revokes `role` from `account`. If `account` had been granted `role`, emits a {RoleRevoked} event. Requirements: - the caller must have ``role``'s admin role."
      },
      "safeTransferFrom(address,address,uint256)": {
        "details": "See {IERC721-safeTransferFrom}."
      },
      "safeTransferFrom(address,address,uint256,bytes)": {
        "details": "See {IERC721-safeTransferFrom}."
      },
      "setApprovalForAll(address,bool)": {
        "details": "See {IERC721-setApprovalForAll}."
      },
      "symbol()": {
        "details": "See {IERC721Metadata-symbol}."
      },
      "tokenByIndex(uint256)": {
        "details": "See {IERC721Enumerable-tokenByIndex}."
      },
      "tokenOfOwnerByIndex(address,uint256)": {
        "details": "See {IERC721Enumerable-tokenOfOwnerByIndex}."
      },
      "tokenURI(uint256)": {
        "details": "See {IERC721Metadata-tokenURI}."
      },
      "totalSupply()": {
        "details": "See {IERC721Enumerable-totalSupply}."
      },
      "transferFrom(address,address,uint256)": {
        "details": "See {IERC721-transferFrom}."
      }
    },
    "version": 1
  },
  "userdoc": {
    "kind": "user",
    "methods": {},
    "version": 1
  }
}